:020000040800F2
:10000000F0FF012035170208A11E0408A51E0408F0
:10001000B51E0408C51E0408D51E04080000000013
:10002000000000000000000000000000B1A0040873
:10003000E51E04080000000051A10408E91E0408A0
:100040008517020885170208851702088517020818
:100050008517020885170208851702088517020808
:1000600085170208851702088517020885170208F8
:1000700085170208851702088517020885170208E8
:1000800085170208851702088517020885170208D8
:1000900085170208851702088517020885170208C8
:1000A00085170208851702088517020885170208B8
:1000B00085170208851702088517020885170208A8
:1000C0008517020885170208851702088517020898
:1000D0008517020885170208851702088517020888
:1000E000FD1E04088517020800000000851702089D
:1000F0008517020885170208851702088517020868
:100100008517020885170208851702088517020857
:100110008517020885170208851702088517020847
:100120008517020885170208851702088517020837
:100130008517020885170208851702088517020827
:100140008517020885170208000000000000000063
:100150008517020885170208851702088517020807
:1001600085170208851702088517020885170208F7
:10017000851702088517020885170208000000008D
:1001800085170208851702088517020885170208D7
:1001900085170208851702088517020885170208C7
:1001A0000515040885170208791E0408851702083A
:1001B00085170208851702088517020885170208A7
:1001C0008517020885170208851702088517020897
:1001D0008517020885170208851702088517020887
:1001E0008517020885170208851702088517020877
:1001F0008517020885170208851702088517020867
:100200008517020885170208851702088517020856
:100210008517020885170208851702088517020846
:1002200085170208851702088517020800000000DC
:100230008517020885170208851702088517020826
:100240008517020885170208851702088517020816
:100250008517020885170208851702088517020806
:1002600085170208851702088517020885170208F6
:1002700085170208851702088517020885170208E6
:10028000851702088517020885170208000000007C
:0802900085170208851702081A
:1002A00010B5054C237833B9044B13B10448AFF3B0
:1002B00000800123237010BD78040020000000009E
:1002C00068B1040808B5034B1BB103490348AFF3F9
:1002D000008008BD000000007C04002068B1040814
:1002E000844641EA000313F003036DD1403A41D341
:1002F00051F8043B40F8043B51F8043B40F8043B00
:1003000051F8043B40F8043B51F8043B40F8043BEF
:1003100051F8043B40F8043B51F8043B40F8043BDF
:1003200051F8043B40F8043B51F8043B40F8043BCF
:1003300051F8043B40F8043B51F8043B40F8043BBF
:1003400051F8043B40F8043B51F8043B40F8043BAF
:1003500051F8043B40F8043B51F8043B40F8043B9F
:1003600051F8043B40F8043B51F8043B40F8043B8F
:10037000403ABDD2303211D351F8043B40F8043B2F
:1003800051F8043B40F8043B51F8043B40F8043B6F
:1003900051F8043B40F8043B103AEDD20C3205D33F
:1003A00051F8043B40F8043B043AF9D2043208D037
:1003B000D2071CBF11F8013B00F8013B01D30B88A9
:1003C00003806046704700BF082A13D38B078DD087
:1003D00010F003038AD0C3F10403D21ADB071CBF59
:1003E00011F8013B00F8013B80D331F8023B20F8C3
:1003F000023B7BE7043AD9D3013A11F8013B00F8FC
:10040000013BF9D20B7803704B7843708B78837083
:100410006046704710B4002483B060F3070461F3B2
:100420000F2462F3174463F31F64204603B05DF8A2
:10043000044B704770B4CCB2C1F30723C5B2C0F30C
:100440000722C1F30746090E2D1BD21AC0F307433A
:10045000002425EAE57522EAE2729B1BC1EB1061DC
:10046000EDB285B0D2B223EAE37365F3070421EA63
:10047000E171DBB262F30F24C9B263F3174461F395
:100480001F64204605B070BC704700BF70B4CDB289
:10049000C1F30723C0F30722C1F3074655FA80F5DD
:1004A000090E1A44C0F30743FF2D01EB10613344DA
:1004B0004FF00004A8BFFF25FF2A85B0A8BFFF2288
:1004C000EDB2FF2BD2B265F30704A8BFFF23FF29CB
:1004D00062F30F24DBB2A8BFFF2163F31744C9B254
:1004E00061F31F64204605B070BC70470A0EC0F36C
:1004F000072C030E2DE9F041C3F1FF03C2F1FF0603
:10050000C5B2274F06FB03F3C0F3074006FB05F413
:10051000CDB287FB038E84B005FB0245C1F30724EF
:100520009E44DB1706FB0CFCC1F3074106FB00F6FB
:10053000A3EBEE13B5F57F4F04FB02C403F1FF03F9
:1005400001FB026220DAA7FB0515B4F57F4FC5F366
:10055000C7151EDA1249B2F57F4FA1FB0414C4F38C
:10056000C7141BDA0E49A1FB0212C2F3C712002006
:10057000DBB265F3070064F30F2062F3174063F307
:100580001F6004B0BDE8F081B4F57F4F4FF0FF0568
:10059000E0DBB2F57F4F4FF0FF04E3DBFF22E6E73D
:1005A0008180808070B481F30801C5B2154EC0F31C
:1005B000072201FB05F5C0F3074301FB02F2000E21
:1005C000A6FB05C50024A6FB02C285B0C5F3C7156E
:1005D00001FB03F3C2F3C71201FB00F165F307044B
:1005E000A6FB0303A6FB010162F30F24C3F3C713A9
:1005F000C1F3C71163F3174461F31F64204605B0CC
:1006000070BC704781808080FF29C0F30722C0F34F
:10061000074328BFFF2170B4C5B2144E01FB02F29C
:10062000000E01FB05F50024A6FB02C285B0A6FB67
:1006300005C501FB03F3C2F3C712C5F3C71501FBE0
:1006400000F1A6FB030365F30704A6FB0101C3F356
:10065000C71362F30F24C1F3C71163F3174461F3A7
:100660001F64204605B070BC704700BF8180808049
:1006700010B485B0019000208DF80410019BDCB20D
:10068000C3F30721C3F307421B0E64F3070061F3B2
:100690000F2062F3174063F31F6005B05DF8044B51
:1006A000704700BF10B485B0019000208DF8051090
:1006B000019BDCB2C3F30721C3F307421B0E64F3B3
:1006C000070061F30F2062F3174063F31F6005B06A
:1006D0005DF8044B704700BF10B485B00190002056
:1006E0008DF80610019BDCB2C3F30721C3F3074268
:1006F0001B0E64F3070061F30F2062F3174063F3EE
:100700001F6005B05DF8044B704700BF10B485B0A2
:10071000019000208DF80710019BDCB2C3F3072184
:10072000C3F307421B0E64F3070061F30F2062F36B
:10073000174063F31F6005B05DF8044B704700BFBE
:10074000C2B282B0CBB201909A42009105D19DF81D
:1007500005209DF801309A4202D0012002B0704776
:100760009DF806209DF802309A42F6D19DF80700C8
:100770009DF80330C01A18BF012002B0704700BFB7
:1007800010B5082182B002F00BFC43680020DCB2F7
:10079000C3F30721C3F307421B0E64F3070061F3A1
:1007A0000F2062F3174063F31F6002B010BD00BF5B
:1007B0000FB42DE9F04F97B020AB53F8044B0593DD
:1007C0002278002A00F0A68006AF0DF157063946C0
:1007D00008E09E420A7004F1010402461D461946D3
:1007E00011D982B1252A607801F10103F1D14B1CA6
:1007F00025281D4640F093809E420A7004F10204B1
:1008000022781946EDD8BB4200F28D80252AD8D136
:100810006078252800F0BC802B2800F0B48004F11B
:10082000010800262D2805D198F801004FF0FF3669
:1008300008F10108302800F09F8000222A2800F0EB
:100840008D80A0F13003092B40F2A4804FF0FF3BD4
:100850002E2870D06FF0050900285BD0433808F1CE
:100860000104352847D8DFE810F05501460046005E
:100870004600460046004600460046004600460048
:10088000460046004600460046001D014600460060
:10089000460046001A014600460046004600460053
:1008A00046004600460046004600750164014600C9
:1008B00080014600460046004600460046004600CD
:1008C00046004600090146004600CE004600C4002E
:1008D000460046003600059B0020196803F1040C11
:1008E0000BEA02021023019600902846CDF814C0AE
:1008F00003F0CCFC0544BD4207D9EB1B5B455ADB3A
:10090000002338462B703FF009FC98F80120002A9C
:100910007FF45AAF17B0BDE8F04F04B07047B9424A
:100920000D467FF679AF002338462B703D463FF0E9
:10093000F5FB22786AE798F801002A2842D1059B46
:1009400008F1020498F80200191D1B68002B05919C
:1009500080F23481A0464FF000097DE7059B08F145
:10096000010898F80000196804332D290593A8BFE1
:100970002D2121EAE17B6BE798F801004FF0FF326F
:1009800008F101085AE704F10208A078012649E7B6
:10099000227816E7002101EB810100EB410118F8F4
:1009A000010FA0F130033039092BF4D92D29A8BF4C
:1009B0002D218B464CE7A3EB0B03B64818443FF0C0
:1009C000ADFB9DE7A0F1300308F10108092BC2D867
:1009D000002303EB830300EB430318F8010FA0F19E
:1009E0003001303B0929F4D9202BA8BF2023994698
:1009F00032E7059B00200BEA0202196803F1040CA0
:100A000001960A2370E7059BBBF1000F03F1040177
:100A1000D4BF00220122002ED3F800A0059102DBF2
:100A2000002A40F0E880B9F1000F02EAD67600F320
:100A3000CB8050463FF072FB002E3FF45CAFBAF122
:100A4000000F00F024819AF80030002B00F01F8185
:100A50000AF1010302E01178013311B11A46002BAB
:100A6000F9D1A2EB0A035B45BFF645AFCBF12F02EC
:100A70008948134418443FF051FB3CE7059E012090
:100A80004FF0000B102331680436009008222846EE
:100A9000CDF804B0059603F0F9FB05442BE7059B60
:100AA00001201AE7059B1A1DD3F800900592B9F1B1
:100AB000000F3FF420AFB9F80030002B3FF41BAF1C
:100AC0000DF1510A03944E46002404E002F8013B64
:100AD000154636F8023F5545A3F12001B1462A4696
:100AE0005CD2002B5AD05F29F0D9A9464FF05C01A7
:100AF0004FF0010C102309F8021B4FF0780104227B
:100B0000484669703188CDE900C403F0BFFB09EBAA
:100B10000005DEE7059B19680433A1F12002059367
:100B200093B25F2B00F282804FF0000B05F8011B9F
:100B3000E1E6059B00200BEA020203F1040C1968B0
:100B400000900A2328460196CDF814C003F00EFC4D
:100B50000544D0E6059B1A1D1B780592002B7AD020
:100B60004FF0000B05F8013BC5E6059B0BEA020AB6
:100B7000073323F0070303F10802D3E900010592CC
:100B800020F006FC334600EE100A4A46514628463D
:100B900003F074FC064648B33544ACE6BD4203D8C6
:100BA000002B90D1039CA6E6002338462B703D46CF
:100BB0003FF0B4FA3388002B85D1F3E7202BA04611
:100BC000A8BF2023994647E64A46384651463FF09B
:100BD000CBFA16AB002238464B4403F8402C3FF0CA
:100BE0009DFA002E3FF487AEBA462CE72B483544D9
:100BF0003FF094FA7FE6BAF1000F3FD09AF8003048
:100C0000002B3CD00AF1010202E01978013211B147
:100C10001346002AF9D1A3EB0A035B452FDBB9F198
:100C2000000F1DDC50463FF079FA64E62E4678232B
:100C300001224FF05C004FF0000B89B206F8020B66
:100C400030466B70102300920422CDF804B003F0FC
:100C50001DFB35184FE612489B463FF05FFA4AE607
:100C60004A46384651463FF07FFA16AB00223846D6
:100C70004B4403F8402C3FF051FA3CE65346CBF18D
:100C80002F020548134418443FF048FAC7E70023F1
:100C9000ECE600BFC3B1040894B10408406E050837
:100CA000446E05080FB42DE9F04385B09448954D86
:100CB0000CABDFF89482DFF8949253F8044B039363
:100CC000FFF776FD002201E0252B0CD0274614F813
:100CD000013B002BF8D18C48FFF76AFD05B0BDE859
:100CE000F04304B07047002A68D12378BC1C243B31
:100CF000512B61D8DFE813F08500600077006000B9
:100D0000600060006B0060006000600060006000D8
:100D100066006000600060006000600060006000CD
:100D200060006000600060006000600060006000C3
:100D300060006000600060006000600060006000B3
:100D400060006000600060006000600060006000A3
:100D50006000600060006000600060006000600093
:100D60006000600060006000600060005200600091
:100D7000600060003B012C016000FC00EF00E70018
:100D8000DF00D70060006000CF0060006000BE00A0
:100D9000B4006000A800A00098009000039800F143
:100DA0000C03026803936AB1116887684368496855
:100DB00056480097FFF7FCFC012287E72846FFF71B
:100DC000F7FC92E75248FFF7F3FC01227EE7039B12
:100DD000191D1A680391002AF4D013684D48596808
:100DE000FFF7E6FCE8E7039B03F108011A680391AB
:100DF000002AE7D011685B6849684748FFF7D8FCCC
:100E0000DAE7039B1A1D1B680392002BDAD059689E
:100E10004248FFF7CDFCCFE7039B41481A1D1968F4
:100E20000392FFF7C5FCC7E7039B3E481A1D1968EC
:100E30000392FFF7BDFCBFE7039B48461A1D1968E4
:100E40000392FFF7B5FCB7E7039F3748FE683968A0
:100E5000D7E90123103700960397FFF7A9FCABE70A
:100E6000039B324803F10807D3E900120397FFF709
:100E70009FFCA1E7039F2E4897F803C0043717F89B
:100E8000023C17F8032C17F8041CCDF800C0039798
:100E9000FFF78EFC90E7039B26481A1D1968039202
:100EA000FFF786FC88E7039B23481A1D1968039205
:100EB000FFF77EFC80E7039B40461A1D19680392EA
:100EC000FFF776FC78E7039B1C481A1D196803920C
:100ED000FFF76EFC70E7039B1948073323F0070305
:100EE00003F10801D3E900230391FFF761FC63E7F5
:100EF000039B14481A1D19680392FFF759FC5BE71E
:100F00004C6E0508546E050808690508EC6E050866
:100F1000786E0508186F0508246F0508A8F2040804
:100F2000586E05086C6E0508BC6E0508B46E0508A1
:100F3000A06E0508CC6E050800F30408DC6E0508F9
:100F40005C6E0508606E0508546F05084C6F050857
:100F5000039A11680432A1F1200089B2039283B28E
:100F60005F2B94BF08480948FFF722FC24E7039B46
:100F70001A1D1B6803921BB10548FFF719FC1BE7FC
:100F80000448FFF715FC17E7906E0508986E0508F2
:100F9000806E0508886E050808B501460348FFF70E
:100FA00007FCBDE808403FF0B1B800BF606F05081E
:100FB00001460148FFF7FCBB646F05080A4601467D
:100FC0000148FFF7F5BB00BFBC6F050813460A4692
:100FD00001460148FFF7ECBB2070050813460A469E
:100FE00001460148FFF7E4BB8C700508031E074A61
:100FF0004FF000014FF00100D8BF802310B4044C23
:101000001160236051605DF8044B70479404002028
:101010000000002003498020034B00220860C3E940
:1010200000227047000000209404002010F0030309
:10103000F0B503D0C3F104031844C91A21F0030129
:10104000A1F13804B4F5806F25DB0022154D01278E
:1010500000F13803A1F13C0E6E6801444263026066
:101060006860C0F80CE0C16183618362C0E904720A
:10107000C0E90B222A68C0E90164C0E9083342B123
:1010800006B130600022C0E90E42026441F8043C1F
:10109000F0BD2860F4E74FF4A770BDE8F040FFF71B
:1010A00087BF00BF940400202DE9F04F3A4C85B073
:1010B000029222680393CDE90001002A60D000204B
:1010C000DDE90F310446054643EA010A6FF00043AB
:1010D0000146064684468646804681469B4601E098
:1010E000126812B3976809F10109B844D2E90337CD
:1010F0009E443E445369D76A9C443D44D2E90C3730
:101100001C443844BAF1000FEAD0176A002FE7D028
:10111000D7E900379B45A8BF9B469942B8BF1946FF
:10112000002FF5D11268002ADCD15B468B45C8BF81
:101130000023009A0AB1C2F80090019A0AB1C2F8DD
:101140000080029A0AB1C2F800E0039A0AB1C2F81C
:1011500000C00E9A02B116600F9A0AB1043B1360E8
:10116000109B0BB104391960119B03B11D60129BD8
:1011700003B11C60139B03B1186005B0BDE8F08F8C
:101180001046914690469646164694461446154695
:1011900011461346CDE700BF940400203D4A3E4B64
:1011A0002DE9F04F85B01468196803903B48FFF7AC
:1011B000FFFA002C68D00026DFF81CB1DFF81CA174
:1011C00003E024680136002C5ED031465846A569FC
:1011D000FFF7EEFAA1683248FFF7EAFAE1685046F5
:1011E000FFF7E6FA21692F48FFF7E2FA61692E4816
:1011F000FFF7DEFAA1692D48FFF7DAFAE1692C481A
:10120000FFF7D6FA216A2B48FFF7D2FA616A2A481B
:10121000FFF7CEFAA16A2948FFF7CAFAE16A28481F
:10122000FFF7C6FA216B2748FFF7C2FA616B264821
:10123000FFF7BEFA039B002BC3D0E3699D42C0D2E7
:10124000DFF89C90DFF89C80204F28682946DFF863
:1012500098C010F0010F20F0030314BF4A46424625
:1012600010F0020F1A4818BFBC46CDF800C0FFF7B7
:101270009FFA2B68E26923F003031D44AA42E4D8D5
:1012800024680136002CA0D1124805B0BDE8F04F0B
:10129000FFF78EBA940400200000002014710508A6
:1012A000647105089C710508B8710508D4710508BA
:1012B000F07105080C7205082872050844720508CB
:1012C000607205087C7205089872050808710508A7
:1012D000B4720508CC7205085471050880710508C0
:1012E000F870050800710508D86805089A4B2DE9C3
:1012F000F04FD3F800B087B001230193BBF1000F8A
:1013000036D05E4614E0D6F800B0BBF1000F29D00D
:10131000DBF80430B34216D0032200230193314698
:1013200040F24F10FFF752FED6F800B05E46FEB115
:101330007368D6E906E5002BE5D1874B1B68B342FD
:10134000E1D00122E9E7B368B3F5806F08DD13F05F
:10135000030905D106F1380296450DD00522DCE7D8
:101360000422DAE77C4B5B68B342ECD00222D4E77C
:10137000019807B0BDE8F08F73449D4201D006226A
:10138000CBE7754500F0C180326A7346CDF814B0E2
:10139000C8464F469346B246CDF8089003929D4208
:1013A0001E688CBF0021012126F003049E4588BFE2
:1013B00041F001011819E9B1072216F0010711D116
:1013C0003946A9F1040908F10108A1440FB1D3F885
:1013D00004B0854200F0BA801F46002A40F0B48075
:1013E0000346DCE78542564697D00021019B0B401F
:1013F000019394E79A07DFD1002C1DDD85421DD3B0
:1014000006F00302022A1BD016F0020F1AD017B3FF
:101410003F6817F0010F1ED1012A1AD0ABEB03076A
:1014200016F00102B7FA87F74FEA571715D19B4517
:1014300019D017460D22C4E70822BEE70922BCE7EF
:101440000A22BAE7012AE9D1002FE7D03A68D20789
:10145000E4D40C22B1E70B22AFE7029A012101325A
:1014600002920022B2E70BF10C06B54202D81746F1
:101470000E22A6E7DBF804C0BCF1000F35D06645AC
:101480000DD2A5F10C06B44509D21CF0030F06D10C
:10149000DCF80060F60705D51746112291E71746DC
:1014A0000F228EE7DCF808605E4502D01746122254
:1014B00087E79E680496039EA6EB030C049EBCFA85
:1014C0008CFCB6FA86F64FEA5C1C7609664502D0BB
:1014D0000027132275E785420ED068B1066816F022
:1014E000010609D1374614226BE7DAF824605E451D
:1014F000DFD01746102264E750F8046C9E4202D0F9
:10150000002715225DE701215BE7C846CDF808906A
:101510003369434503D0002316220193FFE6736924
:10152000029A9342F7D1F3684B4503D00023172268
:101530000193F4E6B36A734502D39D423FF6F6AEDB
:10154000002318220193EAE656464FE75646DDF897
:1015500014B0002ADCD0E0E6940400202DE9F84322
:10156000421E824B9A4200F2E080814B1D68002DA2
:1015700000F0F780820702D020F00300043004302E
:101580007C4A1028176838BF1020874268DC5D68E5
:10159000002D5FD0D5E90926B24240F286800023B3
:1015A0006FF000441168A14203DA884201DC0C4666
:1015B000134692689642F5D3002B76D09E4265D2B0
:1015C000002B00F0B2801A68D5F81CE022F003026C
:1015D00099689C18A64503D99C5824F002049C5095
:1015E000D3F804C0BCF1000F00F0A380CCF80810C1
:1015F0009968002900F0A180C1F804C01C68EA685D
:10160000D5F81080A4EB0009043208F1FF36B9F1D7
:101610000F0FA2EB0402C5E9032654D844F00104DD
:101620001C606A698742A96A02F1010241DC286BE9
:1016300099426A6100F1010028630AD9CA1A4E4929
:10164000921001FB02F2521002EB420203EB820203
:10165000AA621D1D2846BDE8F8832D68002DF9D02B
:101660002B6A1BB9F9E75B68002BF6D01A68904229
:10167000F9DC996822F00302D5F81CE09C18A64515
:10168000AED99C5824F002049C50A9E71A689968C6
:101690009042EFDD0B460029F8D16D68002DD9D0BE
:1016A000D5E90926B2423FF67AAF002AF5D01346B3
:1016B00084E7E86A99426A6100F10100E862C8D2F1
:1016C000AB621D1DC6E787423ADC43F809001C46A1
:1016D0001E68361A1E604B44C4E901C100293AD085
:1016E0004C60BCF1000F3AD0CCF80840266826F0D8
:1016F000030C04EB0C018E4541F8044C06D954F858
:101700000C1041F0020144F80C1026681968A3423D
:10171000A2F10402C5F8108094BF41F0010141F02C
:1017200003013244EA6019607BE700252846BDE8E2
:10173000F883696200297FF45FAFC5F820C05DE7D8
:1017400000261C1843F800909E60C3E90006C4E917
:1017500001C10029C4D12C62BCF1000FC4D16C625C
:10176000C4E74FF4A170FFF723FC73E7FEFFFF0F00
:101770009404002000000020ABAAAAAA002800F0D0
:10178000978110F0030C40F00781CA4B1B68002BB7
:1017900000F08B812DE9F04F061F57E050F8085CF0
:1017A000BEF1000F71D1002D00F06C817446B5427E
:1017B00080F0F880A84500F2F580AA0740F0F2809A
:1017C000D5F800E01EF0030F40F034812EF0030244
:1017D0002A44964240F02E8159695A6B01F1FF3933
:1017E000D96802F10108002C00F0B880226812F0DC
:1017F000010F40F0B38007F1040AC3F8149001EB25
:101800000A0B1969D4F804A001F1FF39C3F8348038
:10181000C3E903B9C5F804A06168002900F0BA80E3
:101820008D601744774427F003022F602A4442F862
:10183000045CC4F808C0C4E900CC40E901CCC0F89D
:1018400004C040F808CC1B68002B5BD0D3F818808C
:10185000B045F8D8DA69B242F5D950F8041C11F055
:10186000010400F0EF8021F00307F419A24218BF31
:10187000002C14BF4FF0010E4FF0000E11F00205C6
:101880008CD1BEF1000F00F0FD80A242C0F0E280DA
:10189000A64234BF4FF000094FF00109B9F1000F23
:1018A00040F0D88056F807E01EF0020F40F0E280CA
:1018B000002D7FF47CAF1EF0010525D15969DD684C
:1018C0005A6B01393D4401325961A168DD605A63A8
:1018D000002971D04E606568002D6BD0AE60A168A4
:1018E0000EEB07021B68C0E9005122F0030140F82B
:1018F000042C721842F8046C46F807C0C4E901CC05
:10190000002BA3D1BDE8F08F2EF0030E002D55D093
:1019100014EB0E0F04EB0E0500F0B480AA4200F0A9
:10192000B180A5422C4640F29D80AA422CBF4FF0C8
:1019300000094FF00109B9F1000F40F09380D5F88C
:1019400000E01EF0020F0EF00105DDD04A46014610
:101950004FF4A570BDE8F04FFFF738BBBE440F440D
:10196000C3F814902EF00301DF60C3F834806A18C6
:10197000C5F800E042F8045CC0F804C040F808CCA8
:1019800040E901CC002C3FF45EAF226842F0020235
:10199000226058E75D6244E70146002240F24310AE
:1019A000FFF714BB0146002240F24710BDE8F04F9C
:1019B000FFF70CBB5E6293E71E628CE7D4F808E089
:1019C000BEF1000F6AD0F04576D8764574D91EF086
:1019D000030F71D1DEF80040A50775D124F0030490
:1019E0007444A64270D9DEF80440C0E9004ECEF837
:1019F00004600468002C4FD0A660F41921F00101A6
:101A0000A24240F8041C44F8046C05D9F25942F093
:101A10000202F25150F8041C5C69DA681D69671E05
:101A2000043A5C6B01355F610A440134C3E9032564
:101A30005C6308E7014600224FF4A470BDE8F04F54
:101A4000FFF7C4BA224601464FF4A270BDE8F04F3A
:101A5000FFF7BCBA0146002240F24510BDE8F04F46
:101A6000FFF7B4BA0146002240F24910BDE8F04F3A
:101A7000FFF7ACBA4A4601464FF4A370BDE8F04FF9
:101A8000FFF7A4BAD3F824E0BEF1000F9BD11C6A83
:101A900014BBC0E900441E625E62AEE7C0E90045C7
:101AA000A660446814B16660A7E770471E62A4E7A9
:101AB000704700BF940400200146002240F24B1002
:101AC000BDE8F04FFFF782BA014600224FF4A6703E
:101AD000BDE8F04FFFF77ABA7246014640F24D106A
:101AE000BDE8F04FFFF772BA064B1B683BB19A692D
:101AF0008242FAD8DA698242F7D901207047184643
:101B0000704700BF94040020014B81600360704760
:101B1000C4B10408704700BF704700BF4FF49D7008
:101B2000FFF746BA2DE9F0410546002840D0244B86
:101B300002689A422BD10069884604303EF0E2FAEE
:101B40000646071D68B31F4C384629693EF004FB62
:101B50002168EB6A4246316038460021266098478A
:101B6000636828690433D4E90221034401328B42BB
:101B7000C4E90132D4E90421C8BFE3601344A26977
:101B80000B449342C8BFA3613846BDE8F0810027EB
:101B90004FF49C70FFF70CFA3EF0B8FA3846BDE8F7
:101BA000F0810A203746FFF703FA3EF0AFFAEBE781
:101BB00040F235102F46FFF7FBF93EF0A7FAE3E7B6
:101BC00053414C439C0400202DE9F843D0F800C059
:101BD0000027274B1D68DCF80C308BB15E687EB1A6
:101BE0001C68002C39D02C4204D036E02C4203F182
:101BF00008032FD19C681E46002CF7D1DE6866BB17
:101C000037B3DCF808300446386915460E46D3F879
:101C100010803EF077FA814610B339693EF09CFAA5
:101C20002A4631462046FB6A44F808909847114AF4
:101C30003B695068D16803448B425360D2E9041079
:101C4000C8BFD3600B44916903448B42C8BF936102
:101C5000BDE8F883F668002ED2D0F3683746BCE7BB
:101C60000B20FFF7A5F9BDE8F8433EF04FBA00BFDF
:101C7000EC0400209C0400200268926870B515698D
:101C800042596AB111680446064A0E695368496BA5
:101C90009B1B5360884760593EF036FA002363511E
:101CA00070BD00BF9C0400202DE9F04100285FD0EA
:101CB000384B0E461C688268002A38D1364F0568BA
:101CC000FA6952B153689D4204D13DE0586885429B
:101CD0003DD01A461368002BF8D10C203EF012FAC2
:101CE000804600284FD07B680022F9680C33C8F882
:101CF00008208B42C8E90025D7E90421C8BFFB6052
:101D00007B601344BA690B4493422ADCFB69C8F830
:101D10000030C7F81C8000213046FFF703FF04465F
:101D20002B689847C8F808402046BDE8F081136842
:101D30001BB904E052F8083F0BB12342FAD05368B4
:101D4000002BBBD01846B6E7134607F11C021968F2
:101D50009C68116074B1FA691A60FB612046BDE8A5
:101D6000F081FA69BB61C8F80020C7F81C80D2E78F
:101D70000446F3E72946224640F23910FFF726F9D8
:101D80003EF0C4F9EAE70E204446FFF711F93EF0B1
:101D9000BDF9E3E7EC0400209C04002010B579B104
:101DA00060B10468A14204D01CB1A4680CB1A14286
:101DB000FBD1002C18BF0446204610BD0446FBE7AB
:101DC0004FF49B700C46FFF7F3F83EF09FF9F3E7F2
:101DD00051B148B1884207D003469B680BB1994284
:101DE000FBD1002B08BF0020704700BF00B1006886
:101DF000704700BFF0B110B504460C203EF082F9E8
:101E0000C8B1104A00218460136AC0E9003103B1EF
:101E100058605368D1680C3310628B425360D2E92A
:101E20000410C8BFD3600B44916903448B42C8BF00
:101E3000936110BD70470C20FFF7BAF8BDE8104061
:101E40003EF064B99C04002058B310B5154C236AC9
:101E50004BB19A68904203D10FE09A6882420CD04D
:101E60001B68002BF9D10146002240F23710FFF722
:101E7000ADF8BDE810403EF049B9D3E9001209B110
:101E80004A605A685AB1116000221846C3E900221C
:101E90009A603EF039F963680C3B636010BD2162C3
:101EA000F2E770479C0400202DE9F04FA34D85B068
:101EB0006B6A0193002B40F0AB8101232A6A6B62AD
:101EC000002A00F0B3811E4601989B461C4601E0A3
:101ED000126862B1936859680029F9D1002842D08C
:101EE00012680E46436018465C60002AF2D10396E1
:101EF000002E40F09681BBF1010F66D05C46234670
:101F00000446D3E90221002900F04A81D1F800C03B
:101F100066461AB15068002800F08D8188488642D4
:101F2000D1E9027202D1002A40F04681486AD1E923
:101F3000056ED1E90782002E00F02481764540F03D
:101F40000381C6457DD1B8F1000F40F0A18012B1E8
:101F5000824240F0BE8098B96FB33A683946624514
:101F600029D16646DAE706465C6018469B46AFE72D
:101F700003EB000E964503D9D668002E40F0B780DB
:101F80008A6A8242E8D002B90A6918441A44904227
:101F9000E2D250F8046B56B136F8021C11F4004F2F
:101FA0006FEA41416FEA514108BF26F8021C8242A4
:101FB000EFD8002FD1D15B68012BA2D1204601F0D0
:101FC000C9FAA04201D0012C99D101F011FB5D4C5E
:101FD00001F020FBE86950B1826803681AB15268C9
:101FE000002A00F0A280044618460028F4D12C688C
:101FF000524D019F2E4644B1A3682268002B00F089
:10200000ED8026461446002CF6D1BBF1010F019756
:1020100006D9DBF80430CBF80440012B9B46F8D8F6
:10202000039E304602F060F8019B1C460444002EDB
:1020300040F0EB806B6A2046013B6B6205B0BDE867
:10204000F08F9E44B8F1000F1ED10E691E44B645B4
:10205000BFF47DAF9A46B14601E0CE450ED2DEF820
:1020600000600EF1080E002EF7D07368002BF4D13B
:102070000123CE45666034467360F0D35346B8F111
:10208000000F3FF464AF03E003EB0806B645E1D36D
:1020900090453FF45CAF9844002A42D10E691E443B
:1020A00046457FF658AF9946B64601E0F0450ED258
:1020B000D8F8006008F10C08002EF7D07368002BE8
:1020C000F4D10123F045666034467360F0D34B468B
:1020D0003DE71A4400287FF44BAF0E6903EB060E70
:1020E0007245BFF439AFD668002E3FF435AF98463D
:1020F00008E01368B3420FD13669324472450BD2FF
:10210000D6684EB15368002BF3D1012362601446A8
:1021100053601368B342EFD0434600283FF41CAF2E
:102120002EE79E184645BED812E723603DF0ECFF2F
:102130006A6823680C3A18466A6056E79C040020D7
:1021400053414C43B804002003EB0609BEF1000FD5
:1021500021D10E691E44B145BFF4F5AE8A46029303
:1021600001E04E450CD959F8041B0029F9D04B6801
:10217000002BF6D101234E4561600C464B60F2D82E
:102180005146029BBEF1000F7FF4DBAEB8F1000FA9
:102190003FF4DDAE7CE703EB0E06B145DED3D0E6BF
:1021A000002A3FF408AF516800297FF404AF0121F1
:1021B000626014465160FEE65268002A3FF4B6AEF3
:1021C0003A69985800283FF4B1AE4268002A7FF47B
:1021D000ADAE0122606004464260A7E620466B680F
:1021E0003260013750F8041F043BAA68D1F810C0D0
:1021F000013A496BA3EB0C03C5E90132884720463D
:102200003DF082FF32681446FDE601F097F811E7D1
:1022100000244FF49E70FEF7CBFE204605B0BDE8CB
:10222000F08F029001F0C0F9029864E69B46039398
:1022300001F0BAF9C9E601206260144650606DE60B
:102240000020704700207047054B10B51C6834B162
:102250006368201D1B6B98472468002CF8D110BDC3
:102260009C040020F8B56F4C002857D16E48FEF74B
:102270009FFA61686D486E4DD4E90223FEF798FA23
:1022800021696C48D4E90C32FEF792FA6169236C3B
:10229000D4E90E02C91A821A6748FEF789FA29683A
:1022A000002909DD654E664B32681B686548FEF7FC
:1022B0007FFA002333602B60616C002902DD6248E5
:1022C000FEF776FA216C002902DD6048FEF770FA0D
:1022D000E16A002903DD5E48FEF76AFAE16A636895
:1022E00020690B44656CD4E90562034459480A44EB
:1022F00033442A445919FEF75BFA4B48FEF758FA63
:10230000A56A45B128462D683DF0FEFEE26A103A06
:10231000E262002DF6D10023A362F8BD2568A66A0B
:1023200025B300276B6856B1B2683046934203D19B
:1023300040E0826893423DD000680028F9D1102027
:102340003DF0E0FE002866D06A68A36AC0E9022773
:10235000C0E9003703B15860E26A06460123A06273
:102360001032E2622D68C360002DDBD135464FF09C
:10237000000E002D44D06A682B460127196892B1DF
:10238000D0688446D86884450DDA0027116009B109
:102390004A605A685168C3E90021536059680029AE
:1023A00029D00B601968A1B14B680A46194613463B
:1023B0000A46E3E7C36842680133002AD2D00168C5
:1023C000116001B14A60A062C0E900677060064612
:1023D000C8E7002FCDD0BEF1000F17D0A5621E4E6A
:1023E000AA683046E96813695268FEF7E1F92D687A
:1023F000002DF5D13AE70F461D464FF0010ED5E707
:10240000BEF1000F3FF432AFA5622FE7002E3FF47C
:102410002DAF3546E3E70D20FEF7CAFD3DF076FE11
:10242000A66AA3E79C040020086905081473050840
:102430000C0600204C730508807305081006002068
:102440001C000020DC73050874740508C0740508BE
:10245000107505083C750508E0720508C0E9001212
:10246000704700BF10B485B06C460DF1100C84E8C5
:102470000C000CE90300009B029A9A4208D10398D1
:10248000019BC01A18BF012005B05DF8044B7047CE
:10249000012005B05DF8044B704700BF82B030B436
:1024A00082B002AC069D059304E90600DDE9002137
:1024B000491BD31AC0E9003102B030BC02B07047EA
:1024C00082B030B482B002AC059304E906000699EC
:1024D000DDE9002529441344C0E9003102B030BCD5
:1024E00002B0704782B002AB03E90600019A009B7C
:1024F00052425B42C0E9003202B0704730B482B051
:1025000005466C4684E80600009394E8030085E8DD
:102510000500284602B030BC704700BF30B482B01E
:1025200005466C4684E80600019394E8030085E8BC
:102530000300284602B030BC704700BF0B460C2198
:1025400010B50446184600F02BFD043003C884E89B
:102550000300204610BD00BF30B4029DC0E9001248
:10256000C0E9023530BC704782B070B483B0044615
:102570006E4606AD86E8060096E8030045F8043F7F
:1025800004F1080384E8050095E8030083E80300EC
:10259000204603B070BC02B0704700BF84B00DF19C
:1025A000100C0CE90F00049B009A9A4203D1019A87
:1025B000059B9A4202D0012004B07047029A069B04
:1025C0009A42F8D10398079BC01A18BF012004B0A3
:1025D000704700BF84B00DF1100C0CE90F00049B94
:1025E000009A9A420DDC029A9A420ADD059B019AF2
:1025F0009A4206DC03989842D4BF0020012004B020
:102600007047002004B0704784B00DF1100C0CE945
:102610000F00029A009B9A4207DD0398019B9842A3
:10262000CCBF0020012004B07047012004B07047E7
:1026300084B070B404AC099E84E80E00079A059D2E
:10264000B418089AAD1B069E891AC46032444560CE
:102650000160826070BC04B0704700BF84B0F0B508
:1026600006AD0D9FDDE9094E85E80E00DDE9072383
:10267000DDE90B6C994201DB00231946A24201DB24
:1026800000242246E6450CDA7145B8BF7146634521
:10269000A8BF6346BE421EDB8B4217DD00242246E4
:1026A0000CE0BE4212DAB2424FF00003B8BF32462D
:1026B000BC421946A8BF3C46A242EFDAC0E9023448
:1026C000BDE8F040C0E9001204B07047002319468D
:1026D0001C461A46F2E7B242B8BF3246BC42A8BF17
:1026E0003C468B42E8DC00231946E5E784B0F0B5B0
:1026F00006AE0D9CDDE9097E86E80E000A46DDE99E
:102700000713DDE90BC59A422ADA0026B94202DB3B
:10271000002701263946AE4501DB0025AE46A4451B
:1027200022DA26BBAE452AD07245A8BF7246AB421C
:10273000B8BF2B466145A8BF6146BC42B8BF3C4606
:102740009A4201DB33463246A14201DB0024214696
:10275000C0E90234BDE8F040C0E9002104B0704790
:10276000002301261A46D1E74EB10024A446C0E951
:1027700000ECC0E90254BDE8F04004B07047C0E985
:102780000237BDE8F040C0E9002104B0704700BF47
:1027900084B0F0B506AE0D9CDDE9097E86E80E003A
:1027A0000A46DDE90713DDE90BC59A422ADA00265D
:1027B000B94202DB002701263946AE4501DB002580
:1027C000AE46A44522DA26BBAE452AD07245B8BF34
:1027D0007246AB42A8BF2B466145B8BF6146BC42BA
:1027E000A8BF3C469A4201DB33463246A14201DB98
:1027F00000242146C0E90234BDE8F040C0E90021D0
:1028000004B07047002301261A46D1E74EB10024D8
:10281000A446C0E900ECC0E90254BDE8F04004B0B1
:102820007047C0E90237BDE8F040C0E9002104B0BC
:10283000704700BF84B0F0B405AD099F0A9E0C46F6
:1028400085E80E00079DE41B0699ED1B089A891B7D
:10285000921B8560C0E90041F0BCC26004B07047C3
:1028600084B070B404AD089E0C4685E80E00099A49
:102870003444069D05993544079E114485603244D1
:10288000C0E9004170BCC26004B0704784B00DF173
:10289000100C0CE90F000398019BC01A04B070479C
:1028A00084B00DF1100C0CE90F000298009BC01AC7
:1028B00004B0704784B00DF1100C0CE90F000298C1
:1028C0000099039B019A401A9B1A03FB00F004B085
:1028D000704700BF84B030B403AD069C85E80E009D
:1028E000049D059B641B5B1AC0E9003430BC04B036
:1028F000704700BF84B070B404AD079C0E4685E8F5
:102900000E00059D0021069A641B0160921BC460A5
:1029100070BCC0E9011204B0704700BF84B070B44D
:1029200004AE079C86E80E00059A0B460699A41A89
:1029300048BF0134C91A48BF013102EB640203EBFE
:102940006103426070BC036004B0704784B070B42F
:1029500004AC099E054684E80E000899DDE90432BE
:1029600016440B44CDE9063694E80F0085E80F00C5
:10297000284670BC04B0704784B070B404AC089DA5
:1029800084E80E00099C069E05604460DDE904238E
:10299000AA1AE31A079D32442B4470BCC0E90223F3
:1029A00004B0704784B070B4089E04AC054684E857
:1029B0000E00049694E80F0085E80F00284670BCCE
:1029C00004B0704784B070B4089E04AC054684E837
:1029D0000E00059694E80F0085E80F00284670BCAD
:1029E00004B0704784B070B4089E04AC054684E817
:1029F0000E00069694E80F0085E80F00284670BC8C
:102A000004B0704784B070B4089E04AC05460796C5
:102A100084E80E0094E80F0085E80F00284670BC9B
:102A200004B0704784B070B404AC089E054684E8D6
:102A30000E000B463344069394E80F0085E80F0020
:102A4000284670BC04B0704784B070B404AC089ED3
:102A5000054684E80E00059B3344079394E80F0075
:102A600085E80F00284670BC04B0704784B070B48D
:102A700004AC08AE054684E80E0096E8030084E83E
:102A8000030094E80F0085E80F00284670BC04B0EE
:102A9000704700BF84B070B404AC08AE054684E84B
:102AA0000E0006AB96E8030083E8030094E80F00ED
:102AB00085E80F00284670BC04B070470B4614210F
:102AC00010B50446184600F06BFA04300FC884E8CD
:102AD0000F00204610BD00BF10B4C0E90012836093
:102AE0005DF8044B704700BF82B084B00DF1100C4C
:102AF00005930CE90700019A9A4203D0012004B023
:102B000002B07047029A069B9A42F7D10398079B3E
:102B1000C01A18BF012004B002B0704784B004ABE3
:102B200003E90700DDE9010304B0184784B004ABF2
:102B300003E90700DDE9010304B0184784B004ABE2
:102B400003E90700DDE9010304B0184784B004ABD2
:102B500003E90700DDE9010304B0184784B004ABC2
:102B600003E90700DDE9010304B0184784B004ABB2
:102B700003E90700DDE9010304B0184784B004ABA2
:102B800003E90700DDE9010304B0184784B004AB92
:102B900003E90700DDE9010304B0184784B004AB82
:102BA00003E90700DDE9010304B0184784B004AB72
:102BB00003E90700DDE9010304B0184710B584B04C
:102BC00004AC04E90E000446DDE9011398472046F1
:102BD00004B010BD10B584B004AC04E90E00044686
:102BE000DDE901139847204604B010BD86B001AB63
:102BF00083E80700029B06B0184700BF84B004AB0F
:102C000003E90700DDE9010304B0184784B004AB11
:102C100003E90700DDE9010304B0184784B004AB01
:102C200003E90700DDE9010304B0184710B584B0DB
:102C300004AC04E90E000446DDE901139847204680
:102C400004B010BD84B004AB03E90700DDE9010363
:102C500004B0184784B004AB03E90700DDE90103C1
:102C600004B0184784B004AB03E90700DDE90103B1
:102C700004B0184784B004AB03E90700DDE90103A1
:102C800004B0184784B00DF1100C0CE90700194688
:102C90000198039B04B0184784B00DF1100C0CE9A7
:102CA000070019460198039B04B0184784B00DF142
:102CB000100C0CE9070019460198039B04B0184753
:102CC00084B00DF1100C0CE9070019460198039B24
:102CD00004B0184784B00DF1100C0CE90700194638
:102CE0000198039B04B0184784B00DF1100C0CE957
:102CF000070019460198039B04B0184784B00DF1F2
:102D0000100C0CE9070019460198039B04B0184702
:102D100084B004AB03E907000198039B04B0184793
:102D200084B00DF1100C0CE9070019460198039BC3
:102D300004B0184784B00DF1100C0CE907001946D7
:102D40000198039B04B0184782B030B486B008AC39
:102D500001AD44F8043F04AB85E8070094E80300A4
:102D600083E80300019893E80600039B06B030BC9B
:102D700002B0184782B030B488B001AC0AAD84E824
:102D8000070045F8043F04AC95E80F0084E80F0005
:102D9000079B01980C9394E80E00039CA44608B08E
:102DA00030BC02B0604700BF84B00DF1100C0CE9DC
:102DB0000700009319460198039B04B0184700BF11
:102DC00084B00DF1100C0CE9070019460198039B23
:102DD00004B0184784B00DF1100C0CE90700194637
:102DE0000198039B04B0184784B00DF1100C0CE956
:102DF000070019460198039B04B0184782B030B40D
:102E000086B008AC01AD44F8043F04AB85E8070088
:102E100094E8030083E80300019893E80600039B0D
:102E200006B030BC02B0184784B00DF1100C0CE9AC
:102E3000070019460198039B04B0184784B00DF1B0
:102E4000100C0CE9070019460198039B04B01847C1
:102E500084B00DF1100C0CE9070019460198039B92
:102E600004B0184784B00DF1100C0CE907001946A6
:102E70000198039B04B0184700282DD070B5044674
:102E80000D4621B927E00820FFF7DAF928B3102012
:102E90003DF038F90028F6D013490022C4600B68D1
:102EA0008560C0E9003203B15860104C08602368A7
:102EB0000F4903F110020F4B08680F4D1B682E6875
:102EC00003440E49B242226008681344C8BF2A6016
:102ED000834200DD0B6070BD70470820FEF768F884
:102EE000BDE870403DF012B9E4040020B0040020B9
:102EF000AC040020A0040020D4040020B40400206E
:102F000010B310B5114C23684BB1DA68904203D16D
:102F100006E0DA68824203D01B68002BF9D110BDAD
:102F2000D3E9001209B14A605A685AB1116000220F
:102F30001846C3E900223DF0E7F8054A1368103B44
:102F4000136010BD2160F2E7704700BFE404002069
:102F5000B0040020014B5868704700BFE404002013
:102F6000034B5A68824202D05860FFF76DB9704730
:102F7000E4040020014B9868704700BFE40400207F
:102F8000014B9860704700BFE404002029B131EA8A
:102F900000030CBF0120002070470846704700BFA7
:102FA000F0B4044648B3164B00255F682846D3F8B2
:102FB00008C0A668D4E90032002A09DD1C68BC42BA
:102FC00008BF1846002C08BF1D46013A0B44F5D136
:102FD00016B978B1F0BC704733681BB905E056F8F4
:102FE000083F13B113EA0C0FF9D07468002CE0D13C
:102FF0000028EFD12846F0BC704705462846FAE77E
:10300000E404002070B5164E346810B30D46082154
:10301000FFF7C6FF416854B1A3689942234603D124
:103020000AE09A688A4207D01B68002BF9D128462B
:10303000BDE87040FEF776BDD3E9001251B14A6099
:103040005A6852B100201160C3E900406360D8683B
:10305000336070BD002AFAD0F4E719600C46F5E73A
:10306000E404002008B50821FFF79AFF406808BD76
:1030700008B50821FFF794FF406808BD2DE9F04F1F
:10308000A54E8DB080460D46F468079209930768F7
:10309000002C00F0DC80C7F3080040F2011341F679
:1030A000FC5642F6FA4108F10402984226442144B3
:1030B00006924FEA572B00F0C3804FF6FF73079A32
:1030C000DFF86CC21727049342F6FB43ACEB040C09
:1030D0004FF0090EE318039200960B934FF481739F
:1030E000029340F2FF13059300230193099B9B1A5F
:1030F0000A93B0F5807F00F0CA80029B984200F0EE
:10310000E980B0F5817FC0F0F7808046002342F669
:10311000F949039A009E9944A144A8F581780CEBE3
:1031200009031FFA88F816F808A009F801AF34F867
:103130001880B8F5817FF0D203925FFA88F8029A7E
:1031400001EB030A0096904201F8038000F0D18061
:10315000049A4FF6FF7842452CD0029A02F10046BD
:1031600002F10109A6F581760296009E16440896A2
:10317000029EB046049E24F81860089EA6F5817849
:103180009AF8006089EA020A0296029E524588F87F
:1031900000600CDABEF10B0F09DC059A0EF1010E8E
:1031A0004FEA420848F001081FFA88F205921FFA18
:1031B00089F20292079A002A76D0099A002A73D0DF
:1031C00003F53353039A009E3B33DDF81C90DDF882
:1031D00028A02344A846013A13F8015D08F8015BD2
:1031E000454602D108EB0A054A469942F2D10490BD
:1031F000CEF1200003920096102F0DDC069BC7F144
:10320000200A53F8048B08FA07F90693203728FAA6
:103210000AF34BEA090B0193019A40F201132BFACE
:103220000EF9A7EB0E0702FA00F8059822FA0EF243
:1032300000EA0B0048EA090B019298427FF459AF6B
:103240000DB0BDE8F08FFEF7FBFF002858D043F625
:10325000FA403CF057FF04460920F460002CF2D0FD
:103260002E4A43F6FA412E48136819440368116048
:1032700099422C4A2C4B12681B68C8BF016013444A
:103280002A480B4402689342C8BF036003E74FF625
:10329000FF7317204FF0090E04934FF481730293CC
:1032A00040F2FF130593A7E742F6FB4805F1FF390B
:1032B000039A9844009EA04418F801AD414509F8CE
:1032C00001AFF9D1013304900392CEF120000096B2
:1032D0001D4491E7049BDDF82CA0B3F5817F02D358
:1032E0009846012313E79DF8108001230B9A82F87A
:1032F000008081F800802BE708708A46002327E7CA
:10330000F468002CACD10920FDF752FE0DB0BDE8E9
:10331000F04F3CF0FBBE00BFE4040020B0040020EE
:10332000D4040020AC040020A0040020B404002039
:1033300008D3FFFF704700BF704700BF10B5064CB1
:10334000E06840B13CF0E0FE044A054B0020116803
:10335000E0600B44136010BDE4040020B0040020C2
:1033600006C3FFFF29B131EA00030CBF0120002092
:1033700070470846704700BF08B50821FFF710FEE8
:1033800090F9040008BD00BF08B50821FFF708FE4A
:10339000B0F9040008BD00BF08B50821FFF700FE22
:1033A000406808BD08B50821FFF7FAFD007908BD9F
:1033B00008B50821FFF7F4FD808808BD08B508218D
:1033C000FFF7EEFD406808BD08B50821FFF7E8FDEE
:1033D000007908BD08B50821FFF7E2FD90ED010A6C
:1033E00008BD00BF08B50821FFF7DAFD406808BD39
:1033F00008B50821FFF7D4FD406808BD38B504467C
:103400000B4D236853B15A68526842B1DA680AB169
:10341000526822B11C462368002BF4D138BD2A68BB
:1034200018461B68183A2A6023603CF06DFEE8E7F6
:10343000A004002038B504460D4D006858B1D0E90D
:1034400000235B6843B1C3680BB15B6823B10446DA
:1034500010460028F3D138BD0369002BF7D12B6843
:10346000143B2B6022603CF04FFE2068E6E700BF73
:10347000A00400202DE9F04182B01D4603680646F5
:103480006F4687E8060013B304461146009802E031
:103490001C461B68E3B19A688A42F9D15A68824295
:1034A000F6D11A69002A45D1196821601A6021688D
:1034B00009B904E011460A68002AFBD10C464FF016
:1034C00001082360DD60404602B0BDE8F08104469B
:1034D00014203CF017FE0346F8B119490020DFF82C
:1034E00070C01A1D0E68DCF800E014361860186110
:1034F0000E60764597E8030082E8030001DDCCF812
:103500000060104A10491268086832440F490244AA
:1035100008688242CBDD0A60C9E704203446FEF722
:103520008FFE80460028D3D10420FDF741FD3CF0FA
:10353000EDFDC8E74FF00008404602B0BDE8F0815D
:10354000A0040020AC040020B0040020B40400203B
:10355000A804002030B4134C0125236833B1DA6885
:103560000AB1516871B11B68002BF8D1636801245E
:1035700033B1DA680AB1516861B11B68002BF8D128
:1035800030BC7047596849680029ECD04260104649
:103590005560E3E7596849680029EED0426010465B
:1035A0005460E5E7F404002038B50F4C23685BB1A4
:1035B0000E4D2A6818461B68143A23602A603CF0B6
:1035C000A3FD2368002BF4D163685BB1074D2A6823
:1035D00018461B68143A63602A603CF095FD6368E6
:1035E000002BF4D138BD00BFF4040020A00400205B
:1035F00010B5074C04F10800FFF700FF04F10C00C0
:10360000FFF7FCFE04F11000BDE81040F6E600BF35
:10361000F404002010B5044C2046FFF70BFF201DDA
:10362000BDE8104006E700BFF4040020C0E9001226
:10363000704700BF10B485B06C460DF1100C84E8E3
:103640000C000CE90300009B029A9A4204D001206E
:1036500005B05DF8044B70470398019BC01A18BF72
:10366000012005B05DF8044B704700BF82B002AB8B
:1036700003E90300009818B11146019B02B01847F6
:1036800002B0704710B582B06C4684E8030030B1D8
:103690001346074894E80600FFF7ECFE08B102B0B5
:1036A00010BD4FF49A7002B0BDE81040FDF780BC29
:1036B000F404002010B483B06C4684E8030038B1F1
:1036C0001346054894E8060003B05DF8044BD1E6C4
:1036D00003B05DF8044B7047F80400202DE9F04179
:1036E000114D2C68002C14BF4FF001084FF000085A
:1036F00012D00E4E012760682761D4E90231984745
:103700002A68336820461268143B2A6033603CF014
:10371000FBFC2C68002CEED16A6800234046C5E90A
:103720000023BDE8F08100BFF4040020A0040020C5
:10373000044B1A680AB1012070475868003018BF5E
:1037400001207047F40400202DE9F04383B06E4659
:1037500086E80300DAB10446C8B1DFF8D480154624
:103760001F46D8F80C10E9B1019A01E00968C9B107
:103770004868A042FAD18B689342F7D1CB68AB423C
:10378000F4D10B69002BF1D14869B842EED1002485
:10379000204603B0BDE8F0830520FEF751FD044646
:1037A000002837D018203CF0ADFC03460028F3D0A9
:1037B0001B4C00F1040CDFF87CE04FF0000922689C
:1037C00096E8030018328CE80300DEF80010D8F801
:1037D0000C008A42DD6018605F61C3F810902260BF
:1037E000C8F80C3001DDCEF800200E4B0E491B68E6
:1037F00009681A440D4B0A4419688A4205DD012400
:103800001A60204603B0BDE8F0830124204603B0CF
:10381000BDE8F0830520FDF7CBFB3CF077FCB7E774
:10382000A0040020AC040020B0040020B404002058
:10383000F4040020A804002082B02DE9F04782B0F3
:103840006D460AAE85E8030086E80C00DAB1D0B117
:10385000DFF8D4A014460B9FDAF810300BB30A46F9
:1038600001E01B68EBB159688142FAD19968914235
:10387000F7D1D968A142F4D11969B942F1D15E6991
:103880000D998E42EDD14FF00008404602B0BDE8E0
:10389000F04702B070470620FEF7D2FC80460028B1
:1038A00033D018203CF02EFC03460028F3D01A4AEF
:1038B00000F10408DFF87490116801F1180C95E824
:1038C000030088E80300D9F800100D988C45586172
:1038D000DAF81000C3E903471860C2F800C0CAF85C
:1038E000103001DDC9F800C00C4B0D4A1B6811688F
:1038F0009C440C4A61441368994203DD11604FF007
:103900000108C2E74FF00108BFE70620FDF750FBB2
:103910003CF0FCFBB9E700BFA0040020AC04002091
:10392000B0040020B4040020F4040020A804002007
:103930002DE9F04182B06D4685E80300002855D09E
:10394000304F1646BB68D3B10C4601E01B68B3B1DB
:1039500059688142FAD19A68A242F7D1DA68002AFE
:10396000F4D11A69002AF1D15969B142EED1144655
:1039700032E00720FEF764FC044600283BD0182004
:103980003CF0C0FB03460028F3D0DFF888C000F10C
:10399000040EDFF884800024DCF8002095E80300A2
:1039A00018328EE80300D8F80010B8688A425E61C9
:1039B0001860DC60CCF80020BB601C6101DDC8F839
:1039C0000020114B11491B6809681A44104B0A4426
:1039D00019688A4204DC0124204602B0BDE8F08167
:1039E00001241A60204602B0BDE8F081044620465A
:1039F00002B0BDE8F0810720FDF7DAFA3CF086FB63
:103A0000EAE700BFF4040020AC040020B00400206A
:103A1000B4040020A0040020A804002070B582B0E7
:103A200002AC04E90300009D22B31DB3134CE1680E
:103A300001B30C34019E02E00C460968D1B148681C
:103A4000A842F9D18868B042F6D1C8689042F3D153
:103A500008690028F0D148699842EDD1084A084623
:103A6000096813682160183B13603CF04DFB01208E
:103A700002B070BD002002B070BD00BFF404002091
:103A8000A004002082B0F0B583B002AC04E90300CA
:103A900008A9009881E80C004AB340B3174C236989
:103AA0002BB31034019D099E02E01C461B68F3B144
:103AB00059688142F9D19968A942F6D1D9689142F1
:103AC000F3D11969B142F0D159690B9FB942ECD1D8
:103AD0000B4A1846196813682160183B13603CF0C4
:103AE00013FB012003B0BDE8F04002B07047002096
:103AF00003B0BDE8F04002B0704700BFF4040020FE
:103B0000A004002030B583B002AB03E903000098A5
:103B100008B3134CA36803B30834019D02E01C46AC
:103B20001B68D3B159688142F9D19968A942F6D18D
:103B3000D9680029F3D119690029F0D15969914256
:103B4000EDD1084A1846196813682160183B1360C4
:103B50003CF0DAFA012003B030BD184603B030BDA6
:103B6000F4040020A0040020D0B10E4B70B5DC6836
:103B700005460E4614B912E0246884B1E368AB42EE
:103B8000FAD12269002AF7D16369B342F4D1231D27
:103B900093E80300FFF776FD2468002CEED170BD9A
:103BA000704700BFF404002070B584B004AC04E991
:103BB0000700019DCDB11E460D4B1C6914B914E0E0
:103BC000246894B1E268AA42FAD12169029A91422A
:103BD000F6D16369B342F3D1231D002293E80300B9
:103BE000FFF750FD2468002CECD104B070BD00BF7D
:103BF000F404002038B50C4B9C68A4B1054601E0E4
:103C0000246884B1E368002BFAD12269002AF7D135
:103C10006369AB42F4D1231D93E80300FFF732FD43
:103C20002468002CEED138BDF40400200028F8B53B
:103C300032DD45000C3504E00320FEF701FB0028CF
:103C40002DD028463CF05EFA04460028F4D0164EEB
:103C50001648336816492B44164F656005680A6894
:103C60002560046001323868336083420A6011DCE9
:103C7000114A0A341149126809681344104A0B4466
:103C800011688B42C8BF136044F2776324F8023C8A
:103C90002046F8BD3B60EBE700242046F8BD03203A
:103CA000FDF786F9F4E700BFAC040020080500200A
:103CB000D0040020CC040020A0040020B004002088
:103CC000B404002040F23153984245D8A0F161037A
:103CD000192B42D9A0F1E003162B3ED9A0F1F8032D
:103CE000062B3AD9A0F27B33022B38D96FF46B7CC8
:103CF00000EB0C03022B34D96FF46C714318102BBA
:103D00002BD9A0F2C333082B27D9A0F586631F2B2C
:103D100023D9A0F58A630F2B62D9C20723D4A0F55B
:103D20009D730E2B5AD9A0F5BD73042B56D9A0F55F
:103D3000E7730E2B52D9A0F2C2430C2B4ED9B528F3
:103D400050D9FF22294B00E09A88904203F10403E6
:103D5000FAD8904208BF58887047203870478230A0
:103D60007047253870476FF48073C3182E2B35D9F0
:103D70006FF4997C00EB0C03042B2FD96FF4A57121
:103D800043182C2B2AD96FF4D0728318042B25D911
:103D90006FF4EF73C318102B20D96FF4FC7C00EB89
:103DA0000C03262B1AD9A0F22323102B16D9A0F22C
:103DB0004723082B12D96FF476714318162B0DD9AF
:103DC0006FF48C628318202B08D9A0F28B43342B1C
:103DD00004D96FF49A63C3185E2BB0D801387047CA
:103DE00050387047B522014BB3E700BF10B204084A
:103DF00003883BB1034633F8022F002AFBD11B1A7C
:103E0000581070471846704772B15200831E30B484
:103E10008D1831F8024BA94223F8024FF9D1104412
:103E2000002330BC0380704700230380704700BF2D
:103E300070B5044658B130F8023C44F2575223F4AE
:103E40000043934203D044F27762934201D120466B
:103E500070BD0E48FCF7ACFC23887BB10C4E0D4DB9
:103E6000A3F12002194628465F2A84BF194630462E
:103E7000FCF79EFC34F8023F002BF1D106480024E9
:103E8000FCF796FC3CF042F9E1E700BF70750508CD
:103E9000A07505089C750508987505082DE9F84377
:103EA0008046414F7C68D8F8005014B924E024685B
:103EB00014B3E3689D42FAD1D4E90032D3B15A6019
:103EC0006268AAB113607B680022B968C4E9002265
:103ED0000022C4E90032002B58D05C60B8F80430EE
:103EE0007C6004EB4304B96010342046BDE8F883DD
:103EF0007B60E9E7FA60E4E7296801F110094846C8
:103F00003CF000F90446002842D0002104F11006DC
:103F1000281DE5600B460A46216061603146C4F801
:103F20000890FFF7ABF8296830460029B8BF013187
:103F30004910FFF7FFF91D4A238A116849441160AF
:103F4000002B2ED0002206EB430601323388002BD3
:103F5000F9D1174D174E2B6830681344164A814229
:103F60002B601268154BC8BF31600A441B68144EA1
:103F70001A44A1683068D7E9013582422944A7DD97
:103F800032600022C4E90032002BA6D1FC60A5E714
:103F90000220FEF755F9002884D10220FDF708F829
:103FA000A3E71A46D5E700BF08050020AC040020AF
:103FB000D0040020CC040020A0040020B004002085
:103FC000B404002040F23153984266D8A0F1410376
:103FD000192B63D9A0F1C003162B5FD9A0F1D80328
:103FE000062B5BD9A0F56273022B59D96FF464716B
:103FF0004318102B52D9A0F2A333082B4ED96FF4DB
:104000007F728318022B4DD9A0F580630F2B62D9E4
:10401000A0F582631F2B41D9C30745D4A0F5807357
:104020002E2B56D9A0F59973042B52D9A0F5A57360
:104030002C2B4ED9A0F5D073042B4AD9A0F5EF73E1
:10404000102B46D9A0F5FC73262B42D9A0F22223CF
:10405000102B3ED9A0F24623082B3AD9A0F576734F
:10406000162B36D9A0F58C63202B32D9A0F28A43C7
:10407000342B2ED9A0F59A635E2B2AD9B0F5987F00
:104080002BD94FF4BC72174B00E09A88904203F191
:104090000403FAD8904208BF588870472030704710
:1040A00025307047823870476FF49C7C00EB0C031E
:1040B0000E2B0ED96FF4BC714318042B09D96FF481
:1040C000E5728318102B04D96FF49863C3180C2B76
:1040D000D4D801307047503070474FF49872014B7C
:1040E000D8E700BF68B304082DE9F84F504B0746E6
:1040F0000026DFF840A11D46DC68DFF83C911B6814
:10410000A84663B11A8918461968C2F30E0C120446
:1041100054D5A3F808C098460B46002BF2D1002CCA
:1041200060D0DFF818A1DFF80C91DFF80C8127B917
:10413000AA68DAF800309A4254DD208A04F1100CA3
:10414000D4F804B000286AD0B4F91230002B30DB68
:104150006346014603E0B3F90220002A29DB03EBA2
:10416000410319880029F6D1D9F80030A2689B1ABA
:10417000C9F800300CEB400C0131BCF800000028FD
:10418000F8D1D8F8003020685B1AC8F80030002851
:104190003ED0C0F804B06368002B3ED01860AB6816
:1041A0000021204601369B1AC4E90011AB603BF0A8
:1041B000ABFFBBF1000F15D05C46B8E7DAF8002082
:1041C0000136D9F800C05B68C8F80010D31A0CF1AA
:1041D000FF32CAF80030C9F800203BF095FFD8F84C
:1041E00000308EE7E86880B1018A00F11003406872
:1041F0000029F8D05A88C2F30E025A8003EB41031B
:1042000019880029F6D10028EED13046BDE8F88F94
:104210005B46C5F80CB0002BC0D16860BFE7D9F889
:1042200000300146A2689B1AC9F80030A9E700BF18
:1042300008050020AC040020D00400200400002069
:1042400011490B6853B103F10802904203D35A6835
:104250001A44904211D31B68002BF4D1CB6853B1A0
:1042600003F11002904203D39A681A44904207D394
:104270005B68002BF4D1184670470A331846704724
:1042800014331846704700BF08050020F0B4049CA2
:10429000059E002C14BF41276127802AA8BF8022D9
:1042A000022B42D0082B30D0102B48D003462E4F83
:1042B000A7FB015409294FEAD40404EB8405A1EBC0
:1042C0004505214605F1300503F8015BF0D8191AC0
:1042D000002E18BF0131521A002A42DD1A44302143
:1042E00003F8011B9342FBD1CEB9531E11469842ED
:1042F00008D2024614781D7802F8015B03F80149E0
:104300009342F7D8081AF0BC7047034601F007043F
:10431000C90804F1300403F8014BF7D1D7E711467F
:1043200013462B2201F8012BE1E7034601F00104BB
:10433000490804F1300403F8014BF7D1C7E70A3FFD
:10434000034601F00F050133ECB2092D04EB07051C
:1043500004F1300488BFECB2090903F8014CF0D134
:10436000B5E71A46C0E700BFCDCCCCCCF0B5DDE94F
:104370000547002C14BF4FF0410E4FF0610E802A0C
:10438000A8BF8022002954DB17F1000C0C4618BF8F
:104390004FF0010C022B52D0082B2FD0102B58D0ED
:1043A0000346DFF8D4E0AEFB0465092C4FEAD505DF
:1043B00005EB8506A4EB46062C4606F1300603F80D
:1043C000016BF0D81C1AA444A2EB0C02002A24DDD5
:1043D0001A44302403F8014B9342FBD107BB531E10
:1043E0001546984208D2024611781C7802F8014B13
:1043F00003F801199342F7D8281AF0BD034604F0D8
:104400000705E40805F1300503F8015BF7D11C1A34
:10441000A444A2EB0C02002ADADC1A46002FDED0FC
:10442000002902F101051346B4BF2D212B21117083
:10443000D7E70127022BC1F10004BC46ACD10346EB
:1044400004F00105640805F1300503F8015BF7D1BC
:10445000B8E7AEF10A0E034604F00F060133F5B2D9
:10446000092E05EB0E0605F1300588BFF5B22409CB
:1044700003F8015CF0D1A5E7CDCCCCCC2DE9F04F11
:1044800010EE105A91B0174688460193EB0F0021A9
:104490000646342203A8009345F0E8FF414687EA28
:1044A000E77EC5F31604C5F3C755AEEBE77E80295A
:1044B000A8BF8021BEF1200FA8BF4FF0200EFF2D16
:1044C00000F0DA8005F10A0344F4000410AD03F0B3
:1044D0000F021B11C2F1100005EB430C04FA02F8A5
:1044E00044FA00F02CF8348C2CF8320C002A40F0FE
:1044F000A28010A800EB430323F8302C002F00F01B
:10450000C28000250DF13E000DF10A04002334F8AD
:10451000022F02EB8202844203EB420323804FEA24
:104520002343F4D101357545EEDBBDF91E300DF1A5
:104530001E0C002BC0F28580DDE90032134378D1D8
:10454000B046554D044600234FF0010B34F80229C4
:1045500012EB0342A5FB02A90ED04FEAD9031FFAC2
:1045600083F903EB8303B9F1000F18BF4FF0000B81
:10457000A4F80290A2EB43036445E7D10EF1FF3E9D
:104580003033BEF1000F88F8003007D14FF02E0312
:10459000023908F1020808F8013CD3E708F10108E4
:1045A00001F1FF3902DCBBF1000F01D14946C9E737
:1045B000002F6BDA3378302B68D173782E2B65D0CF
:1045C000721C04E012F8013F2E2B05D0A946302BB7
:1045D000144609F10105F5D0A64242D3002D0DDDA8
:1045E0004246302102F8011BC2F1010343444B440F
:1045F000002BF7DC29EAE97301339844009B8BB167
:1046000041462D2301F8013B06E0237898F800206D
:1046100004F8012B08F801394445F6D3881B11B082
:10462000BDE8F08F019B414653B32B2301F8013BBA
:10463000F2E7013984E7C2F1200244FA02F292B2B1
:1046400057E7624632F8023F01339BB21380002BDA
:104650007FF472AF8242F5D1DDE900321343E8D135
:104660006EE7A8EB0402214630463BF07BFDA31B1E
:104670003446A8EB0308B1E7002011B0BDE8F08F85
:1046800008F1FF38C8E70DF13E004EE74D463446CD
:10469000A1F10209A2E700BFCDCCCCCC78B170B5B6
:1046A0000446FFF7A5FB0546FFF7C0FA064620B112
:1046B0001DB12A462146FFF7A7FB304670BDFFF724
:1046C000B5BA00BF70B504460078B0B1254615F8FC
:1046D000013F002BFBD12E1B3046FFF7A7FA88B114
:1046E00096B1034614F8012BA54223F8022BF9D109
:1046F00000EB46060023338070BDFFF797FA0646AD
:104700000028F7D1002070BD0646F3E72DE9F843F5
:104710000D1E40F3818004462B460246002605E02C
:10472000013B0132002B06F1010608DD1178080675
:10473000F6D5DF2934D8023B0232002BF2DA3046BC
:10474000FFF774FA00286BD0002E00EB460C22DD38
:1047500001464FF6FF7708E00134013D013E21F8A4
:10476000023B002E17DD002D15DD23787F2BF3D9BA
:10477000DF2B1AD8012D18DD62789B01013E023D26
:1047800003F4F86302F03F02002E04F10204134424
:1047900021F8023BE7DC0023ACF80030BDE8F883E9
:1047A000EF2936D8033B0332C7E7EF2B12D8022D8F
:1047B00010DD94F802E01B0394F80180033D9AB2E7
:1047C0000EF03F034FEA881E033413440EF47C625C
:1047D0001344C3E7032DDEDD94F801E09B0494F855
:1047E0000280043D4FEA0E3E94F803904FEA881889
:1047F00003F4E01209F03F090EF47C3308F47C6EF8
:1048000004341A430EEB09031344BB4228BF3B4652
:10481000A4E7043B043290E70020FFF707FA10B941
:104820000020BDE8F8838446B5E700BF10B500243A
:10483000A4B013460A4601940146009403A8FFF76A
:1048400025FD24AB034403A803F8844CFFF73AFF8B
:1048500024B010BD10B50024A4B013460A4601943C
:104860000146009403A8FFF781FD24AB034403A88D
:1048700003F8844CFFF726FF24B010BD0A1E4FF04A
:1048800000030146B8BF6FF0050200B5A3B001A850
:10489000FFF7F4FD50B122AB0022034401A803F856
:1048A000842CFFF70FFF23B05DF804FB0248FFF7ED
:1048B00009FF23B05DF804FB406E050838B50546D6
:1048C00008460C46FFF7B2F948B14CB100EB440181
:1048D000034623F8025B9942FBD100230B8038BDCD
:1048E000014600230B80FAE738B50D46FFF7A0FA22
:1048F00004462846FFF79CFAACB1238878B10288B9
:1049000093421BD16BB134F8023F30F8022F93422F
:10491000F8D09B1A0FD4181C18BF012038BD002BEB
:10492000F9D10023F7E70028FBD00388002BF8D04B
:104930001A462346EDE74FF0FF3038BD1C461346BC
:10494000F6E700BF03681968013101D0FFF7A6BA86
:10495000808803EB4000704710B50446FFF768FA03
:104960002CB134F8022C44F277639A4201D02046ED
:1049700010BD44F25753204624F8023C10BD00BF3E
:104980002DE9F0410D460746FFF752FA28B3FFF72D
:104990002FFA04462846FFF74BFAC8B1FFF728FA6A
:1049A000804604B3A8B12044FFF740F9064688B119
:1049B0001FB139462246FFF727FA06EB44004DB1F6
:1049C00040B142462946FFF71FFA3046BDE8F08164
:1049D0004CB13E463046BDE8F0812846FFF728FA44
:1049E00008B1FFF705FA2E463046BDE8F08100BF5A
:1049F000F8B50E460546FFF71BFAC8B1FFF7F8F900
:104A000004460EB92846F8BD601CFFF70FF90746AB
:104A100080B124B11DB129462246FFF7F5F907EB15
:104A2000440300223D4627F814605A802846F8BD0A
:104A30000446E6E70546E5E770B5064608460C4637
:104A4000FFF7F6F9E8B1FFF7D3F905460EB92046AE
:104A500070BD681CFFF7EAF8034678B100220680B3
:104A6000954218BF944220F8022F07D030B121465A
:104A70001C462A46FFF7C8F9204670BD1C46204652
:104A800070BD0546E2E700BF38B50C460546FFF7A6
:104A9000CFF980B1002C0EDB034600EB4402008806
:104AA000934204D230B133F8020F9A42FAD808B1D7
:104AB00035F8140038BD002038BD00BF70B50D4674
:104AC00016460446FFF7B4F920B3002D22DB00EBB5
:104AD00045020388904204D2E3B130F8023F82429B
:104AE000FAD8BBB134F8022C4FF6FF739A4219D0B2
:104AF00034F8042C44F277639A4203D1204624F818
:104B0000156070BD2046FFF7C9FD0446204624F815
:104B10001560F6E74FF49770FCF74AFA3BF0F6FAA7
:104B2000002070BD40F22F10FCF742FA3BF0EEFA85
:104B3000002070BD08B5FFF77BF918B1BDE808404B
:104B4000FFF756B908BD00BFF8B50646FFF770F984
:104B5000B6FA86F46409C0B1FFF74AF90746FFF7D1
:104B600065F80546B8B1B4B91FB13A463146FFF70A
:104B70004BF9288838B12C46FFF7A4F824F8020B2B
:104B800020880028F8D12846F8BDFFF74FF80546E1
:104B900008B1002CEDD0002DEBD12846F8BD00BFA8
:104BA000F8B50646FFF744F9B6FA86F46409C0B1D1
:104BB000FFF71EF90746FFF739F80546B8B1B4B953
:104BC0001FB13A463146FFF71FF9288838B12C4605
:104BD000FFF7F8F924F8020B20880028F8D12846BE
:104BE000F8BDFFF723F8054608B1002CEDD0002DE5
:104BF000EBD12846F8BD00BF70B50C460546FFF75F
:104C000017F9B0B1FFF7F4F8A0420DDB84420BD0E6
:104C100094B12046FFF70AF806463DB130B1294667
:104C200035462246FFF7F0F8284670BD354628463F
:104C300070BD002CF8DCE9E72546284670BD00BFB2
:104C4000F8B50D460646FFF7F3F8C8B1FFF7D0F800
:104C5000A84204460FDBA5420DD0ADB1641B284627
:104C6000FEF7E4FF074616EB440106D028B13E46A6
:104C70002A46FFF7C9F83046F8BD3E463046F8BD33
:104C8000002DF8DC0446E6E72E463046F8BD00BFAE
:104C9000F8B50C4615460646FFF7CAF858B3FFF7B5
:104CA000A7F8002C1CDB844212DA6319834210DC63
:104CB000854211D02DB32846FEF7B8FF074616EB04
:104CC000440103D010B12A46FFF79EF83846F8BDDC
:104CD0000BDD051B8542EDD137463846F8BD184639
:104CE000254400248442E0DBF2E700280CBF37466D
:104CF00000273846F8BD002C0346F0DBECD0184600
:104D0000E7E72F46E2E700BF2DE9F0470F461546DB
:104D10008146FFF78DF8002842D0FFF769F8044676
:104D20003846FFF785F898B3FFF762F8064678B380
:104D300094B325EAE5752044A542A8BF2546FEF7B1
:104D400075FF804608B3B9F1000F04D01DB12A46A3
:104D50004946FFF759F84FEA450A08EB0A0027B120
:104D600018B139463246FFF74FF819EB0A0106EB46
:104D700005000CBF01230023621B08EB400008BFA5
:104D8000012313B908B1FFF73FF84046BDE8F087AB
:104D9000C8464046BDE8F087B8464046BDE8F087C3
:104DA0000446BDE72DE9F0410D4616460746FFF7DC
:104DB0003FF8B0B3FFF71CF80446002D05EB0603DF
:104DC00001DA1E4600259C42B8BF661B002E1FDD7F
:104DD000A64221D0A01BFEF729FF8046E0B127B1F3
:104DE0001DB12A463946FFF70FF87119641B08EB0D
:104DF000450017EB41010CBF01230023A21B08BF94
:104E0000012313B908B1FEF7FFFF4046BDE8F0816A
:104E1000B8464046BDE8F0814FF000084046BDE886
:104E2000F0810446C9E700BFF8B50D4616460746AF
:104E3000FEF7FEFF08B1FEF7DBFF002E11DBB042EC
:104E40000FDD17EB46000CD037F816304BB19D4202
:104E50000ED0044601E09D4206D034F8023F002BFC
:104E6000F9D14FF0FF30F8BD241A06EB6400F8BD0D
:104E70003046F8BDF8B50D4614460646FEF7D8FF95
:104E800098B3FEF7B5FF07462846FEF7D1FF002C82
:104E90001DDBA7421BDD6200D64206EB020C19D0D7
:104EA000C5B12F88CFB1B25A8AB1634697420AD1B1
:104EB0002846194600E02EB131F8026F30F8022F73
:104EC0009642F8D05AB133F8022F002AEED14FF0B3
:104ED000FF30F8BDBCF1000FF9D02046F8BDA3EBC0
:104EE0000C0304EB63042046F8E70746CCE700BF59
:104EF0002DE9F0410E469046FEF79AFFD0B30388A5
:104F0000A3F10902042A01D9202B0AD1841C2046CE
:104F100084B334F8023BA3F10905042DF7D9202B03
:104F2000F5D02B2B5CD02D2B5AD00127B8F1100FC8
:104F300023D94FF00A082F2B1CD908F12F029342D6
:104F400018DCA3F13004A2B2092A04D923F020020C
:104F5000413A052A0ED8B8F1020F4AD1002130F8A3
:104F6000023F04EB4101A3F13004A3B2012BF6D9B7
:104F700007FB01F63046BDE8F0812D4A22FA08F21F
:104F8000D207D6D5B8F1100FD5D1A3F13004A2B213
:104F9000092A04D923F02002413A052AEAD800213F
:104FA000A3F161020D01A3F15701A3F14106052A06
:104FB000294406D9052EA3F1370304EB050198BF58
:104FC000591930F8023FA3F1300423F02002A5B2B2
:104FD000413A092DE4D9052AE2D907FB01F6C9E7D0
:104FE0004188821C2D2B10460B469ED14FF0FF3777
:104FF0009CE7B8F1080F0AD1002130F8023F04EB1A
:10500000C101A3F13004A3B2072BF6D9B0E7B8F180
:105010000A0FC4D1002130F8023F01EB810104EBFB
:105020004101A3F13004A3B2092BF4D9A0E700BFDA
:1050300004010100F8B50E461746FEF7F9FEC0B3AD
:105040000388A3F10902042A01D9202B0AD1841C68
:10505000204674B334F8023BA3F10905042DF7D9B7
:10506000202BF5D02B2B4DD02D2B4BD00125102FE5
:1050700021D90A272F2B1CD907F12F02934218DCC4
:10508000A3F13002092A04D923F02002413A052A6B
:105090000FD8022F3FD1002603EB460130F8023F24
:1050A000A3F13002A1F13006012AF5D9013500D172
:1050B00076423046F8BD2B4AFA40D207D9D5102F98
:1050C000D8D1A3F13002092A04D923F02002413AB1
:1050D000052AEED80026A3F161023101A3F14104B3
:1050E000052A01EB030624D8573E30F8023FA3F10E
:1050F000300123F020020929A2F14102EBD9052A4F
:10510000E9D9D3E74188821C2D2B10460B46ADD13F
:105110004FF0FF35ABE7082F14D1002603EBC60193
:1051200030F8023FA3F13002A1F13006072AF5D989
:10513000BCE7CE18052C3346A6F1300698BFA3F184
:105140003706D2E70A2FC5D1002606EB860103EB0E
:10515000410130F8023FA3F13002A1F13006092AE3
:10516000F3D9A3E70401010038B52DED028BB0EEB1
:10517000408AFEF75DFE08B30288A2F10903042B02
:1051800001D9202A0AD1831C1846BBB133F8022B5F
:10519000A2F109010429F7D9202AF5D02B2A5AD0E7
:1051A0002D2A58D00124A2F1300399B209290AD935
:1051B0002E2A03D14388303B092B55D9B0EE480A3B
:1051C000BDEC028B38BDB2EE047A9FED3C8A07EE4F
:1051D000903A30F8022FF8EEE77AA2F1300399B254
:1051E000E8EE077A0929B0EE678AF0D92E2A5DD059
:1051F00022F0200292B2452A24D141882B2951D095
:105200002D2955D0851C0120A1F1300293B2092B24
:1052100018D8002335F8021F03EB830302EB430386
:10522000A1F1300291B20929F4D900FB03F34BB18B
:1052300007EE903AB2EE040AF8EEE70A3AF0C2FF3F
:1052400028EE008A0134B9D1B1EE488AB0EE480A9E
:10525000BDEC028B38BD4188831C2D2A18460A46B6
:10526000A0D14FF0FF349EE703469FED148A5A8881
:105270000230A2F1300399B20929B9D8DFED107AD2
:10528000F0EE676A30F8022F07EE103AA2F1300311
:10529000B8EEC77A99B2A7EE278A092967EEA67AEF
:1052A000F0D9A5E7051D81880120ADE70346DEE7BB
:1052B000051D81884FF0FF30A6E700BF0000000009
:1052C000CDCCCC3D2DE9F843174688469946064695
:1052D000FEF7AEFD002F1EDDDEB1012F19D035889F
:1052E000BDB1013F3046444608EB070602E030F806
:1052F000025F3DB1FF2D4A4698BFEAB204F8012B88
:10530000B442F4D1002304F8013BA4EB0800BDE84B
:10531000F8834446F6E70020BDE8F88310B504465C
:10532000FEF786FD94B1238893B1023400207F2BD1
:1053300006D801301CB134F8023B002BF7D110BD68
:10534000B3F5006F34BF02300330F3E7204610BDE1
:10535000184610BDF8B515460F460446FEF768FD21
:10536000002D44DD002C44D023886A1E002B40D041
:10537000002A3EDD023438467F2B05460FD805F85B
:10538000013B013A28462CB1002A34F8023B01DDEA
:10539000002BF1D1002300F8013BC01BF8BD4FEA00
:1053A000133EC3F3851C03F03F019E0913F4004F25
:1053B0006EF01F0E6CF07F0C61F07F01034666F00B
:1053C0003F0608D1012AA2F10202E3D003F8026BE2
:1053D00041701846D7E7022AA2F10302DADD80F80D
:1053E00000E0033000F802CC00F8011CCBE70020FD
:1053F000F8BD3846CEE700BF08B50C21FDF7D0FD5B
:1054000043681A68013205D0011DBDE8084008460E
:10541000FEF744BD008903EB400008BD08B5082134
:10542000FDF7BEFD808808BD08B5FEF74BFC80B2D5
:1054300008BD00BF08B5FEF7C5FD80B208BD00BFBE
:1054400010B504463AF084FE064B1A68824202D92F
:105450005A6801325A60186093E8030084E8030038
:10546000204610BD18050020F8B506460D4603E09D
:105470000120FCF7E5FE38B320203AF043FE044655
:105480000028F5D01349002213480B68134F20332E
:105490002273C4E9016585688460386825608342A9
:1054A0000B60C4E90422C4E9062200DD3B600C4A1B
:1054B0000C491268096813440B4A0B4411688B426B
:1054C00000DD13602046F8BD0120FBF771FD3AF0C6
:1054D0001DFEF7E7A004002018050020A804002006
:1054E000AC040020B0040020B404002008B5174923
:1054F000037B8A682BB100230373C0E90633C0E93C
:10550000043382421FD04AB11368984210D02BB1A5
:105510001A6882420DD01346002BF9D101460022B1
:1055200040F22D10FBF752FDBDE808403AF0EEBD09
:10553000134602681A60064A1368203B1360BDE8F0
:1055400008403AF0E1BD03688B60F4E718050020DD
:10555000A004002030B5037B85B004460D462BB176
:1055600000230373C0E90633C0E90433002D18DBC0
:10557000002A12DBBDB1A56102A8E261FFF760FF5E
:10558000DDE902311D44AB424FF0010388BF013118
:105590002373C4E9045105B030BD002DFBD00022B7
:1055A000E9E7002AF7DB002AF5D0A26102A8E26150
:1055B0000192FFF745FF019ADDE90231D518E2E7D4
:1055C000037B2BB100230373C0E90633C0E9043326
:1055D000704700BF274BF0B583B09C686846FFF763
:1055E0002FFF009E002C3CD000252F4623E0D3182F
:1055F0003BD2C4E90430BCF1000F01D1A6EB030C8F
:10560000BCF1000F11DBF31A93FBF2F002FB103335
:10561000F01A002BC8BF01F1FF31864288BF01316B
:10562000121828BF0131C4E90421D4E90130013541
:1056300098472468B4B1237B002BFAD00199D4E9B0
:105640000430B1EB000C0CBFF21A6246002AF0DB0A
:10565000E269002ACBDC2773C4E90677C4E9047742
:10566000E3E72546284603B0F0BD0130A1EB000C6E
:10567000BFE700BF180500200C4B10B582B09C6836
:105680006846FFF7DDFE009A6FF000405CB1237BB7
:1056900023B123699B1A9842A8BF18462468002C9E
:1056A000F5D120EAE07002B010BD00BF180500205F
:1056B000F8B501FB00F305460E469C0004F1180006
:1056C00018F09EFD00B3114900F11802104F4FEA87
:1056D000850C0B688260002218330560C0F80CC08E
:1056E00023443C6846600B60A3420A49C8BF3B6044
:1056F0000C680949C0E90422084A126822440C686F
:105700001344A342C8BF0B60F8BD00BFB004002023
:10571000D4040020AC040020B4040020A004002025
:10572000002A33D0F8B5136813B15368042B01D0A5
:105730000020F8BD9368B3EB800FF9DB0446182016
:1057400016460D4618F05CFD0028F2D0104A0023E2
:10575000104F4FF0010E1168046018314560356834
:1057600011603A68B46891420B4AC0E904E30B4BFC
:10577000C8BF39601B68C0E902541468084A234452
:1057800014680B44A342D4DD1360F8BD1046704783
:10579000B0040020D4040020AC040020A0040020A9
:1057A000B404002068B143695BB9036910B40C4CC0
:1057B000216843B11823CB1A23605DF8044B18F01D
:1057C00021BE18F01FBED0E9003202FB03F30633FE
:1057D0009B00CB1A23605DF8044B18F013BE00BF8A
:1057E000B0040020F0B4DDE904430CB104698CB9C5
:1057F000890000240427D0E9025601205F6002FBE3
:1058000006129E602A44DC609C611A60C3E904446D
:10581000F0BC70470020F0BC704700BF01FB00F0F7
:1058200006308000704700BFF8B501FB00F3054665
:105830000E465C0004F1140018F0E2FCF8B1104AC6
:105840004FEA450C0F4900F1140713680560002565
:105850001433C0F80CC0466023440C688760A34230
:105860001360094AC8BF0B60084912680C680849F0
:10587000224405610C681344A342C8BF0B60F8BD05
:10588000B0040020D4040020A0040020AC040020B8
:10589000B404002058B103694BB90649D0E900238C
:1058A00003FB02F30A680A33A2EB43030B6018F010
:1058B000A9BD00BFB0040020F0B44900059B00243E
:1058C0000227D0E9025601205F6002FB06129E60AB
:1058D0001544DC609C611D60C3E90444F0BC704762
:1058E00001FB00F040007047002A31D0F8B5136882
:1058F00013B15368022B01D00020F8BD9368B3EBBD
:10590000400FF9DB0446142016460D4618F078FCCB
:105910000028F2D00F4A4FF0010C336811680E4F87
:1059200014310460B46883603B68116099420B4A8B
:105930000B4BC8BF39601B684560C0E9034C146855
:10594000084A234414680B44A342D6DD1360F8BD13
:1059500010467047B0040020D4040020AC0400209E
:10596000A0040020B4040020F8B501FB00F30546B4
:105970000E465C0004F1140018F042FCF8B1104A25
:105980004FEA450C0F4900F1140713680560002524
:105990001433C0F80CC0466023440C688760A342EF
:1059A0001360094AC8BF0B60084912680C680849AF
:1059B000224405610C681344A342C8BF0B60F8BDC4
:1059C000B0040020D4040020A0040020AC04002077
:1059D000B4040020B8B1036910B40C4C216833B191
:1059E0001423CB1A23605DF8044B18F00BBDD0E9EB
:1059F000003202FB03F30A335B00CB1A23605DF82D
:105A0000044B18F0FFBC18F0FDBC00BFB004002030
:105A1000F0B4DDE904430CB104698CB949000024F9
:105A20000227D0E9025601205F6002FB06129E6049
:105A30002A44DC609C611A60C3E90444F0BC7047EE
:105A40000020F0BC704700BF01FB00F00A304000AE
:105A5000704700BF40EA024040EA036040EA01208C
:105A6000704700BF42EA036343EA012343EA004070
:105A7000704700BF70B41C681D6924091E6A2D0B95
:105A80001B6B04F47F04C6F3075605F47F451B0126
:105A90002C4303F07F4385683443006805FB02F222
:105AA0001C4300EB81018C5070BC7047F0B51C6842
:105AB00089001D69866824092D0B006804F47F04A1
:105AC00006FB021205F47F45196A1B6BC1F30751EF
:105AD0002C431B010C4303F07F432343190EFF2982
