:020000040800F2
:100000000000022081DA04083D5404084154040829
:10001000515404086154040871540408000000009D
:1000200000000000000000000000000071C3040890
:10003000815404080000000011C404088554040819
:10004000D1DA0408D1DA0408D1DA0408D1DA0408D4
:10005000D1DA0408D1DA0408D1DA0408D1DA0408C4
:10006000D1DA0408D1DA0408D1DA0408D1DA0408B4
:10007000D1DA0408D1DA0408D1DA0408D1DA0408A4
:10008000D1DA0408D1DA0408D1DA0408D1DA040894
:10009000D1DA0408D1DA0408D1DA0408D1DA040884
:1000A000D1DA0408D1DA0408D1DA0408D1DA040874
:1000B000D1DA0408D1DA0408D1DA0408D1DA040864
:1000C000D1DA0408D1DA0408D1DA0408D1DA040854
:1000D000D1DA0408D1DA0408D1DA0408D1DA040844
:1000E00099540408D1DA040800000000D1DA0408A9
:1000F000D1DA0408D1DA0408D1DA0408D1DA040824
:10010000D1DA0408D1DA0408D1DA0408D1DA040813
:10011000D1DA0408D1DA0408D1DA0408D1DA040803
:10012000D1DA0408D1DA0408D1DA0408D1DA0408F3
:10013000D1DA0408D1DA0408D1DA0408D1DA0408E3
:10014000D1DA0408D1DA0408000000000000000041
:10015000D1DA0408D1DA0408D1DA0408D1DA0408C3
:10016000D1DA0408D1DA0408D1DA0408D1DA0408B3
:10017000D1DA0408D1DA0408D1DA0408000000005A
:10018000D1DA0408D1DA0408D1DA0408D1DA040893
:10019000D1DA0408D1DA0408D1DA0408D1DA040883
:1001A00005480408D1DA0408ED4D0408D1DA040842
:1001B000D1DA0408D1DA0408D1DA0408D1DA040863
:1001C000D1DA0408D1DA0408D1DA0408D1DA040853
:1001D000D1DA0408D1DA0408D1DA0408D1DA040843
:1001E000D1DA0408D1DA0408D1DA0408D1DA040833
:1001F000D1DA0408D1DA0408D1DA0408D1DA040823
:10020000D1DA0408D1DA0408D1DA0408D1DA040812
:10021000D1DA0408D1DA0408D1DA0408D1DA040802
:10022000D1DA0408D1DA0408D1DA040800000000A9
:10023000D1DA0408D1DA0408D1DA0408D1DA0408E2
:10024000D1DA0408D1DA0408D1DA0408D1DA0408D2
:10025000D1DA0408D1DA0408D1DA0408D1DA0408C2
:10026000D1DA0408D1DA0408D1DA0408D1DA0408B2
:10027000D1DA0408D1DA0408D1DA0408D1DA0408A2
:10028000D1DA0408D1DA0408D1DA04080000000049
:08029000D1DA0408D1DA0408F8
:1002A00010B5054C237833B9044B13B10448AFF3B0
:1002B00000800123237010BD4C05002000000000C9
:1002C0005CFB040808B5034B1BB103490348AFF3BB
:1002D000008008BD00000000500500205CFB040801
:1002E000F8B501FB00F305460E469C0004F118002A
:1002F00018F09EFD00B3114900F11802104F4FEAAB
:10030000850C0B688260002218330560C0F80CC0B1
:1003100023443C6846600B60A3420A49C8BF3B6067
:100320000C680949C0E90422084A126822440C6892
:100330001344A342C8BF0B60F8BD00BF143D0020AA
:10034000383D0020103D0020183D0020043D0020D5
:10035000002A33D0F8B5136813B15368042B01D0C9
:100360000020F8BD9368B3EB800FF9DB044618203A
:1003700016460D4618F05CFD0028F2D0104A002306
:10038000104F4FF0010E1168046018314560356858
:1003900011603A68B46891420B4AC0E904E30B4B20
:1003A000C8BF39601B68C0E902541468084A234476
:1003B00014680B44A342D4DD1360F8BD10467047A7
:1003C000143D0020383D0020103D0020043D002059
:1003D000183D002068B143695BB9036910B40C4C47
:1003E000216843B11823CB1A23605DF8044B18F041
:1003F00021BE18F01FBED0E9003202FB03F3063322
:100400009B00CB1A23605DF8044B18F013BE00BFAD
:10041000143D0020F0B4DDE904430CB104698CB94B
:10042000890000240427D0E9025601205F6002FB06
:1004300006129E602A44DC609C611A60C3E9044491
:10044000F0BC70470020F0BC704700BF01FB00F01B
:1004500006308000704700BFF8B501FB00F3054689
:100460000E465C0004F1140018F0E2FCF8B1104AEA
:100470004FEA450C0F4900F1140713680560002589
:100480001433C0F80CC0466023440C688760A34254
:100490001360094AC8BF0B60084912680C68084914
:1004A000224405610C681344A342C8BF0B60F8BD29
:1004B000143D0020383D0020043D0020103D002068
:1004C000183D002058B103694BB90649D0E9002313
:1004D00003FB02F30A680A33A2EB43030B6018F034
:1004E000A9BD00BF143D0020F0B44900059B0024C5
:1004F0000227D0E9025601205F6002FB06129E60CF
:100500001544DC609C611D60C3E90444F0BC704785
:1005100001FB00F040007047002A31D0F8B51368A5
:1005200013B15368022B01D00020F8BD9368B3EBE0
:10053000400FF9DB0446142016460D4618F078FCEF
:100540000028F2D00F4A4FF0010C336811680E4FAB
:1005500014310460B46883603B68116099420B4AAF
:100560000B4BC8BF39601B684560C0E9034C146879
:10057000084A234414680B44A342D6DD1360F8BD37
:1005800010467047143D0020383D0020103D0020EB
:10059000043D0020183D0020F8B501FB00F305469E
:1005A0000E465C0004F1140018F042FCF8B1104A49
:1005B0004FEA450C0F4900F1140713680560002548
:1005C0001433C0F80CC0466023440C688760A34213
:1005D0001360094AC8BF0B60084912680C680849D3
:1005E000224405610C681344A342C8BF0B60F8BDE8
:1005F000143D0020383D0020043D0020103D002027
:10060000183D0020B8B1036910B40C4C216833B117
:100610001423CB1A23605DF8044B18F00BBDD0E90E
:10062000003202FB03F30A335B00CB1A23605DF850
:10063000044B18F0FFBC18F0FDBC00BF143D0020B7
:10064000F0B4DDE904430CB104698CB9490000241D
:100650000227D0E9025601205F6002FB06129E606D
:100660002A44DC609C611A60C3E90444F0BC704712
:100670000020F0BC704700BF01FB00F00A304000D2
:10068000704700BF40EA024040EA036040EA0120B0
:10069000704700BF42EA036343EA012343EA004094
:1006A000704700BF70B41C681D6924091E6A2D0BB9
:1006B0001B6B04F47F04C6F3075605F47F451B014A
:1006C0002C4303F07F4385683443006805FB02F246
:1006D0001C4300EB81018C5070BC7047F0B51C6866
:1006E00089001D69866824092D0B006804F47F04C5
:1006F00006FB021205F47F45196A1B6BC1F3075113
:100700002C431B010C4303F07F432343190EFF29A5
:1007100004D085585FEA156C02D109B18350F0BD51
:100720000029FCD04F1C05F0FF1E03F0FF14C5F399
:100730000725C7F58076C3F307230CFB0666360A48
:1007400006FB0EFC314406FB05F507FB04C4FE293D
:1007500007FB03534FEA14244FEA132304F0FF145A
:100760000CD80A4D03F0FF1335F8116004FB06F5B1
:1007700006FB03F32D0A1B0A05F0FF141B0244EAD3
:10078000016403F0FF231C438450F0BD206E050874
:10079000F0B415690029046810684FEA1536176A25
:1007A0004FEA1010156B06F47F46C7F3075200F4AA
:1007B0007F004FEA051540EA060005F07F4542EA52
:1007C000000242EA050205DD4B1E013B44F8042B02
:1007D000591CFAD1F0BC70472DE9F04F136800297D
:1007E00015694FEA1313176A4FEA1536156B03F4B0
:1007F0007F03C7F3075206F47F464FEA05150068EA
:1008000043EA060305F07F4542EA030242EA050295
:1008100055DD150E02F0FF1CC2F3072701F1FF346E
:1008200005F10103DFF89C8014BF4FF0010E4FF07B
:10083000000EC3F5807603FB0CFC03FB07F704E016
:100840000260013C0430631C39D0FF2DF8D00368EE
:10085000190E02D1BEF1000FF2D103F0FF1901FB16
:100860000661C3F30723002DEBD0090A01FB09C978
:1008700005EB010A01FB03734FEA1929BAF1FE0FD8
:100880004FEA132309F0FF1903F0FF1B0AD838F8C9
:100890001A1009FB01F901FB0BF14FEA19290B0AA8
:1008A00009F0FF191B02013C49EA0A6A043003F00F
:1008B000FF2343EA0A0340F8043C631CC5D1BDE8AA
:1008C000F08F00BF206E05080029136BD2F804C01A
:1008D0002DE9F04F14681569166AD2F814E0D2F8C1
:1008E00024800768526B1CDD481E11011A01230980
:1008F00002F07F4A4FEA153BC6F3075903F47F0322
:1009000001380BF47F4B644475440A4443EA0B03FB
:10091000464443EA0A0343EA090347F8043B431CFD
:10092000E5D1BDE8F08F00BF2DE9F04F546987B0E5
:10093000002916680294546A1769D2F820C0136B14
:10094000D2F8049000680394526B6DDD4D1E1901BE
:100950004FEA021A01910CE00360029B013D4E44F4
:1009600004301F44039B9C44019B534401936B1C24
:100970005AD03409019B3A0BCCF3075804F47F0E8C
:1009800003F07F4302F47F424EEA020444EA03028A
:1009900042EA08031A0EFF2ADED004685FEA146BED
:1009A00001D1002AD8D103F0FF1E04F0FF1102F19B
:1009B0000108C4F30724CDF810E0C3F30723059121
:1009C000C8F5807E002AC8D00BFB0EEE05994FEAD1
:1009D0001E2E0EFB01FB724404990EFB04FEFE2A40
:1009E00008FB03EE08FB01BB4FEA1E2E4FEA1B2B50
:1009F0000EF0FF130BF0FF1B0CD80D4931F812E07D
:100A00000BFB0EFB0EFB03FE4FEA1B2B4FEA1E2EC9
:100A10000BF0FF1B4FEA0E2E4BEA02620EF0FF2E88
:100A20004EEA0202026098E707B0BDE8F08F00BF0F
:100A3000206E0508002A0068096802F1FF3307DD0F
:100A4000021F51F8040B013B42F8040F581CF8D167
:100A5000704700BF002A00682DE9F0430D6848DDAB
:100A6000541E254E04E00360013C0430631C40D05A
:100A700055F8043B1A0EFF2AF5D001685FEA1169A8
:100A800001D1002AEFD102F1010E01F0FF1803F0AD
:100A9000FF17C1F30721CEF5807CC3F30723002A9B
:100AA000E2D009FB0CCC4FEA1C2C0CFB08F862448A
:100AB0000CFB01F10EFB0787FE2A0EFB03134FEA26
:100AC00017274FEA132307F0FF1703F0FF1C09D87D
:100AD00036F8121007FB01F701FB0CF33F0A1B0A63
:100AE00007F0FF171B0247EA026203F0FF231343DC
:100AF000B9E7BDE8F08300BF206E0508002A30B4D6
:100B000004681D6B086811DD2D15511E013550F864
:100B1000043B01391A0E23F07F4305FB02F2120A4F
:100B200043EA026344F8043B4B1CF0D130BC7047ED
:100B3000002A00682DE9F0431C6B0D6849DD24157F
:100B4000511E254E013455F8043B03F0FF17C3F343
:100B500007221B0E03FB044337D0D0F800C01B0A4A
:100B60000CF0FF19CCF30728C3F5807E5FEA1C6CFC
:100B700003FB07F703FB02F20CFB0EEE06D04FEA75
:100B80001E2E0EFB097773440EFB082203F1FF3E75
:100B90003F0A120A4FEA0E6C07F0FF1783B1BEF14D
:100BA000FE0F02F0FF1809D836F81E3007FB03F7D6
:100BB00003FB08F23F0A120A07F0FF1747EA0C0787
:100BC000120202F0FF223A430260013904304B1C4A
:100BD000B9D1BDE8F08300BF206E0508002AF0B44B
:100BE0000C680568D3E90C1711DD501E54F8043B5E
:100BF0000E15013839441A0E23F07F4306FB0222FA
:100C0000120A43EA026345F8043B431CEED1F0BCF0
:100C1000704700BF002A00682DE9F0470D68D3E94E
:100C20000C464FDD511E284F55F8043B4FEA24581F
:100C300003F0FF1CC3F307221B0E03F101033CD09A
:100C400008FB0333D0F800E01B0A0EF0FF19CEF3C7
:100C500007285FEA1E6EC3F5807A03FB0CFC03FBDA
:100C600002F20EFB0AAA06D04FEA1A2A0AFB09CCA6
:100C700053440AFB082203F1FF384FEA1C2C120AE6
:100C80004FEA086E0CF0FF1C8BB1B8F1FE0F02F0BA
:100C9000FF130AD837F818200CFB02FC02FB03F202
:100CA0004FEA1C2C120A0CF0FF1C4CEA0E0C12022C
:100CB00002F0FF2242EA0C0202600139043034449F
:100CC0004B1CB1D1BDE8F087206E0508002A0068F2
:100CD0000B6810B48C6908DD1A4413F8011B54F832
:100CE0002110934240F8041BF7D15DF8044B704784
:100CF000002A2DE9F04704680D688E694BDD2A440F
:100D0000264F04E02360954204F1040443D015F813
:100D1000013B56F82330190EFF29F3D020685FEA13
:100D2000106801D10029EDD101F1010E00F0FF1989
:100D300003F0FF1CC0F30720CEF5807AC3F307232E
:100D40000029E0D008FB0AA84FEA182808FB09F997
:100D5000414408FB00F00EFB0C9CFE290EFB030334
:100D60004FEA1C2C4FEA13230CF0FF1C03F0FF1E6C
:100D70000AD837F811000CFB00FC00FB0EF34FEA19
:100D80001C2C1B0A0CF0FF1C1B024CEA016103F037
:100D9000FF230B43B6E7BDE8F08700BF206E0508D0
:100DA000002A70B404681D6B08688E6914DD2D1567
:100DB0000244013510F8013B56F8233090424FEAC7
:100DC000136123F07F4305FB01F14FEA112143EA50
:100DD000016344F8043BEDD170BC7047002A2DE953
:100DE000F0471E6B05680C688F694CDD3615224490
:100DF000DFF898C0013614F8013B57F8233003F0B0
:100E0000FF10C3F307211B0E03FB066337D0D5F891
:100E100000E01B0A0EF0FF1ACEF30729C3F5807815
:100E20005FEA1E6E03FB00F003FB01F10EFB088876
:100E300006D04FEA182808FB0A00434408FB0911B2
:100E400003F1FF38000A090A4FEA086E00F0FF10AC
:100E500083B1B8F1FE0F01F0FF1309D83CF8181068
:100E600000FB01F001FB03F1000A090A00F0FF108A
:100E700040EA0E00090201F0FF2108432860A24267
:100E800005F10405B7D1BDE8F08700BF206E050865
:100E9000002AF0B405688F690868D3E90C4C14DDAA
:100EA000024410F8013B2615644457F82330904261
:100EB0004FEA136123F07F4306FB01114FEA112132
:100EC00043EA016345F8043BEBD1F0BC704700BF37
:100ED000002A2DE9F04F05680C688F69D3E90C6C86
:100EE0004FDD2244DFF8A0E014F8013B4FEA265919
:100EF00057F8233003F0FF10C3F307211B0E03F153
:100F0000010339D009FB0333D5F800801B0A08F030
:100F1000FF1AC8F307295FEA1868C3F5807B03FB53
:100F200000F003FB01F108FB0BBB06D04FEA1B2BC3
:100F30000BFB0A005B440BFB091103F1FF38000AAD
:100F4000090A4FEA086900F0FF1083B1B8F1FE0FFB
:100F500001F0FF1309D83EF8181000FB01F001FB67
:100F600003F1000A090A00F0FF1040EA0900090233
:100F700001F0FF2108432860A24205F10405664400
:100F8000B2D1BDE8F08F00BF206E0508F0B41C6838
:100F9000002A1E694FEA14141F6A4FEA16361B6BAB
:100FA00004F47F04C7F3075706F47F454FEA0313A1
:100FB000006845EA040503F07F43096845EA070530
:100FC00045EA03051BDD0A442E0E25F07F4704E0A9
:100FD00003608A4200F1040011D011F8013B002B9C
:100FE000F6D003FB0664FF2B4FEA142409D047EA2E
:100FF00004648A4200F1040040F8044CEDD1F0BCD6
:1010000070470560E5E700BF2DE9F04F1C68002A36
:101010001D6983B04FEA14141E6A4FEA15351B6B25
:1010200004F47F04C6F3075605F47F454FEA031323
:10103000006844EA050403F07F43096844EA0604B3
:1010400044EA030459DD270E0A44C4F3072904F0D7
:10105000FF1B07F10108A64605E0C0F800E08A4240
:1010600000F1040049D011F8013B002BF7D0FF2B11
:1010700001D1BB42F1D0002FF1D003FB08830468FB
:101080001B0A5FEA146A03FB09F503FB0BF60195E3
:1010900010D0C3F5807C04F0FF15C4F307240AFBCD
:1010A0000CCC4FEA1C2C0CFB0566019D63440CFB29
:1010B00004540194360A019C06F0FF16250A9BB1E0
:1010C000013BFE2B4FEA036C1AD8114C05F0FF15BB
:1010D00034F8133006FB03F603FB05F5360A2D0A38
:1010E00006F0FF1343EA0C062D0205F0FF252E4300
:1010F00006608A4200F10400B5D103B0BDE8F08F6C
:101100002D0246EA0C0605F0FF252E430660F0E7A7
:10111000206E05082DE9F04FD0F800C083B0586864
:10112000002A0C68009058691D681E691F6A196BB7
:10113000D3F824A001905B6B32DD4FEA031904EB76
:101140000208090110E000FB0220000A4EEA0060DC
:10115000CCF80000009BA04557440CF1040C1D4442
:10116000019B49441E441BD02B0914F8010B320B80
:1011700001F07F4BC7F3075E03F47F0302F47F4265
:101180000028E5D01A43FF2842EA0B0242EA0E0388
:101190004FEA136223F07F4ED5D1CCF80030D9E767
:1011A00003B0BDE8F08F00BF2DE9F04F076885B0B0
:1011B0005868002A1C68009058691D690190586A97
:1011C0001E6AD3F830C0096802905B6B6CDD01EBDE
:1011D000020B4FEA031E4FEA0C120BE03B60009B30
:1011E000594507F1040772441C44019B1D44029BAE
:1011F0001E4459D011F8010B0028F0D04FEA141901
:1012000002F07F4C4FEA1538C6F3075309F47F0903
:10121000FF2808F47F4849EA080848EA0C0848EA29
:1012200003034FEA136A01D15045D7D0BAF1000F3A
:10123000D5D00AF1010A03F0FF1CD7F80080C3F3F0
:10124000072300FB0AA05FEA186A4FEA102000FBA0
:1012500003F300FB0CFC039310D0C0F5807908F079
:10126000FF13C8F307280AFB09994FEA192909FB5C
:1012700003CC039B484409FB083303934FEA1C2C1F
:10128000039B0CF0FF1C4FEA132930B10138FE28F4
:101290004FEA00680BD94CEA080C4FEA092303F027
:1012A000FF2343EA0C0399E705B0BDE8F08F084B34
:1012B00033F8100009F0FF130CFB00FC00FB03F3F4
:1012C0004FEA1C2C4FEA13290CF0FF1CE3E700BF88
:1012D000206E0508002A006830B40C681DDD04EBA0
:1012E000420234F8021BCB0894424FEAC10503F0D6
:1012F000FC034FEA1121EDB243EA931301F0F80128
:1013000045EA032341EA511143EA551343EA0143F5
:1013100043F07F4340F8043BE3D130BC704700BF4B
:10132000002AF0B41F6B06680D6820DD3F1505EB41
:10133000420201373F0635F8024BBC46210AE30062
:1013400001F0F801E008DBB200F0FC0041EA5111C5
:1013500043EA531340EA901043EA01431CB143EAC5
:10136000002343EA070CAA4246F804CBE3D1F0BCC1
:10137000704700BF002A2DE9F04F1C6B06680F680C
:1013800059DD2415043E07EB4202DFF8B09001342A
:10139000C4F5807C37F802EB254656F8040F4FEA77
:1013A0001E234FEACE0100F0FF184FEADE0B03F0D8
:1013B000F803C9B2C0F3072E43EA531A0BF0FC033B
:1013C00041EA511143EA931B41EA0A43000E43EA02
:1013D0000B2300FB0CC003F0FF11C3F3072301FB39
:1013E00004F103FB04F305D0000A00FB08112518E3
:1013F00000FB0E3305F1FF3E090A1B0A4FEA0E609F
:1014000001F0FF117DB1BEF1FE0F03F0FF1509D809
:1014100039F81E3001FB03F103FB05F3090A1B0A2F
:1014200001F0FF1101431B02974203F0FF2341EA41
:1014300003013160AED1BDE8F08F00BF206E05081A
:10144000002AF0B506680C68D3E90C5722DD04EBDE
:10145000420234F8023B4FEA255C3D44180A0CF185
:10146000010CD9004FEAD30E00F0F800C9B20EF01B
:10147000FC0E40EA501041EA51114EEA9E1E41EA2C
:1014800000410BB141EA0E2343EA0C63944246F853
:10149000043BDED1F0BD00BF002A2DE9F04F066805
:1014A0000F68D3E90CCE55DD043E07EB4202DFF8AE
:1014B000A88037F8021B4FEA2C5056F8044F4FEA29
:1014C000112B0130CB0004F0FF1A0BF0F80BC90808
:1014D000DBB2C0F580754BEA5B1B01F0FC0143EA0F
:1014E0005313C4F3072941EA911143EA0B43240E35
:1014F00043EA012304FB055503F0FF11C3F307235F
:1015000001FB00F103FB00F305D02D0A05FB0A11D6
:10151000284405FB0933451E090A1B0A2C0601F065
:10152000FF1170B1FE2D03F0FF1009D838F8153007
:1015300001FB03F103FB00F3090A1B0A01F0FF1191
:1015400021431B029742F44403F0FF2341EA0301C5
:101550003160AED1BDE8F08F206E0508002A2DE97C
:10156000F0430B9E8D68D1F800800468DDE9071E0A
:10157000DDE909C716DD501EAD100A1301384FEA28
:101580002339614406FB02F2734407FB09F9121484
:101590004FEA294905FB029258F8222044F8042B0F
:1015A000421CEAD1BDE8F0832DE9F04F006885B018
:1015B000002A019088680968DDF838A002914FEA96
:1015C000A001039178DD02F1FF394A1C4FEA820B3A
:1015D0000F9819134FEA2A32039D0344119809F119
:1015E000FF3900FB01F11098B9F1FF3F82441298D6
:1015F0004FEA213100FB02F2A1F108014FEA223249
:101600004FEA211001F00F01A2F10802C1F110060A
:101610004FEA221402F00F0205FB0404C2F1100C81
:10162000029802FB06F601FB0CFC00EB840702FBB0
:1016300001F2CCF5807550F824407968A5EB0605D9
:1016400004F0FF1E4FEA112001F0FF11A5EB020587
:101650004FEA14280CFB01F157F80B4000F0FF1083
:101660005F4405FB0E1108F0FF1857F8047C0CFBD3
:1016700000F04FEA142E04F0FF144FEA172C05FB7C
:10168000080002FB04110EF0FF1E07F0FF170CF01C
:10169000FF1C02FB0E00019A06FB071106FB0C0063
:1016A0004FEA112100F0FF2001F0FF1140EA010094
:1016B00042F8040B01928BD105B0BDE8F08F00BF5A
:1016C0002DE9F04F002A85B000688C68D1F80080C1
:1016D000DDF840A0DDE90E6761DD551E4FEAA40E7E
:1016E000DDF8449007E001600F9A013D5644043054
:1016F00013446A1C53D03213129C191304FB02F2D8
:1017000009FB01F1121409140EFB021258F8221001
:101710000A0EFF2AE7D004685FEA146B01D1002AA1
:10172000E1D104F0FF1702F1010CC4F30724029782
:1017300001F0FF170394C1F307210197CCF58074E2
:10174000002AD1D00BFB0444029F240A04FB07FBB0
:10175000039F224404FB07F4019FFE2A0CFB014473
:101760000CFB07BB4FEA14244FEA1B2B04F0FF11BC
:101770000BF0FF1B0BD80B4C34F812400BFB04FB97
:1017800004FB01F44FEA1B2B240A0BF0FF1B24027D
:101790004BEA026204F0FF2422430260A4E705B092
:1017A000BDE8F08F206E05082DE9F04FD0F80090CD
:1017B00085B08868002A0968DDF838B001914FEAE1
:1017C000A001029140F3B58002F1FF3A4A1C920059
:1017D00003920DE0C9F800600F9A0AF1FF3A09F18F
:1017E00004091344BAF1FF3F109A934400F0A1801A
:1017F000119819134FEA2B32029D00FB01F1129848
:1018000000FB02F2091312130839083A081101F01B
:101810000F01141102F00F02C1F1100605FB0404C0
:101820000198C2F1100C02FB06F600EB840702FBE4
:1018300001F201FB0CFC50F824407968CCF580756E
:1018400004F0FF1E080A01F0FF11AD1B4FEA142837
:101850000CFB01F100F0FF10AD1A08F0FF18009129
:1018600003990CFB00F07C580F44009905FB08001D
:1018700057F8047C05FB0E114FEA142E04F0FF14F8
:101880004FEA172C0EF0FF1E07F0FF1702FB0411A2
:101890000CF0FF1C02FB0E0006FB071106FB0C06FA
:1018A000090A06F0FF2601F0FF110E43310EFF2951
:1018B00090D0D9F800005FEA106C01D1002989D1DD
:1018C0004F1C00F0FF1E06F0FF14C0F30720C7F501
:1018D0008075C6F3072600293FF47EAF0CFB055543
:1018E0002D0A05FB0EFE294405FB00F507FB04EE5F
:1018F000FE2907FB06554FEA1E2E4FEA15250EF06E
:10190000FF1E05F0FF120BD80B4830F811500EFBEC
:1019100005FE05FB02F54FEA1E2E2D0A0EF0FF1EF6
:101920002D024EEA016105F0FF252943C9F8001098
:1019300052E705B0BDE8F08F206E05082DE9F04FA5
:1019400083B08F68D0F800E0119E4FEAA709DDF858
:1019500030C0346B356D24150F680134002D5DD116
:10196000716DB1FA81FB4FEA5B1B002A02F1FF3572
:1019700051DD4A46CDF800B0B94693460F981A1388
:101980004FEA2C31009F00FB02F2109800FB01F19E
:101990001214091401FB0B2059F8200057BBB76B38
:1019A000D6F854A001971AF10008376D346B18BFB0
:1019B0004FF0010867B159B1776B07FB0144BAF1E9
:1019C000000F14D0F76BBA46019F0AFB0171019119
:1019D0006AB1B8F1000F0AD02115019F04F07F64AD
:1019E000C1EB2758B16C01FB08F802FB0844C4F3B3
:1019F00007540134020E0D9920F07F40013D04FB95
:101A000002F20B440E99120A8C4440EA02606A1CEE
:101A10004EF8040BB2D103B0BDE8F08F4FF0000BCD
:101A2000A3E700BF2DE9F04F89B08D680068DDF8AD
:101A30005C800290A810D8F8304004904FEA2459F6
:101A40000968D8F8504009F101000691DDF8489086
:101A50000390002C40F0C280D8F85410B1FA81F104
:101A600049090591002A02F1FF3B40F3B480049A32
:101A70000193013292000792019B4FEA2935181316
:101A8000159B03FB00F0169B03FB05F5059B02135A
:101A900029135BBBD8F854E00014D8F850301EF17D
:101AA0000004D8F83060D8F8387018BF012463B14A
:101AB0002D140AD0D8F8343003FB0566BEF1000FB0
:101AC00010D0D8F83C3003FB057758B154B1351528
:101AD000D8F8484006F07F66C5EB275704FB07F7A8
:101AE00000FB0766C6F30756731C0393139B083964
:101AF0000198083A01F00F0A0BF1FF3B1844149BC0
:101B0000CAF1100EBBF1FF3F019099444FEA21103A
:101B1000049B4FEA221102F00F0203FB001106980A
:101B200002FB0EFEC2F1100500EB810C50F8210003
:101B30000AFB05F5CEF58074DCF804100AFB02F20E
:101B4000079BA4EB05044FEA112701F0FF114FEAB0
:101B50001026A4EB02040EFB01F100F0FF1A07F0BF
:101B6000FF175CF803009C4404FB0A1A0EFB07F7FE
:101B700006F0FF165CF8041C4FEA102C00F0FF1072
:101B800004FB06774FEA112E0CF0FF1C02FB00AAA3
:101B900001F0FF110EF0FF1E02FB0C7705FB01AAFE
:101BA000039B05FB0E774FEA1A2A07F0FF270AF07E
:101BB000FF1A47EA0A0E4FEA1E602EF07F4E03FB23
:101BC00000F0029B4FEA10204EEA006043F8040B3D
:101BD00002937FF451AF09B0BDE8F08F0021059169
:101BE00040E700BF2DE9F04F83B006688868119F79
:101BF0004FEAA00AD1F800B03C6B3D6D2415DDF82A
:101C000030C00134002D40F09480796DB1FA81F13B
:101C100049090191002A02F1FF3540F387800093C2
:101C2000009B4FEA2C300F9A1913019B02FB01F124
:101C3000109A02FB00F00914001400FB0A125BF872
:101C400022203BBBD7F854903B6D19F100083C6B48
:101C5000D7F838E018BF4FF001084BB140B17B6BAB
:101C600003FB0044B9F1000F11D0FB6B03FB00EE46
:101C700069B1B8F1000F0AD04FEA2458B86C04F0EB
:101C80007F64C8EB2E5E00FB0EFE01FB0E44C4F326
:101C900007540134110E3ED001FB0441306802F0BC
:101CA000FF1EC2F30722090A5FEA106901FB0EFE5C
:101CB00001FB02F20ED0C1F5807800F0FF13C0F3F3
:101CC000072009FB08884FEA1828414408FB03EE67
:101CD00008FB00224FEA1E2E120A0EF0FF1EA1B1D1
:101CE0000139FE294FEA01600DD8134B02F0FF12B3
:101CF00033F811100EFB01FE01FB02F24FEA1E2E1B
:101D0000120A0EF0FF1E4EEA000E120202F0FF222F
:101D100042EA0E0232600D9B013D009A04361A44DD
:101D20000E9B9C446B1C00927FF47AAF03B0BDE81D
:101D3000F08F002101916DE7206E05082DE9F04F2D
:101D400087B08D68D0F800C0159EA8100968346B64
:101D500001904FEA245E346D04910EF1010002906F
:101D6000002C40F0F380716DB1FA81F149090391C3
:101D7000002A02F1FF3540F3E480019A009301321A
:101D800092000592009B1813109B1C13139B03FBDE
:101D900000F0149B03FB04F4039B0113221363BBA9
:101DA000D6F854A00014336D1AF10009376BD6F839
:101DB000388018BF4FF001095BB1241409D0736B50
:101DC00003FB0477BAF1000F00F0BE80F36B03FB56
:101DD0000488BE4660B1B9F1000F09D03F15B46C5C
:101DE0000EF07F6EC7EB285804FB08F800FB08EEE6
:101DF000CEF3075E0EF1010302930839083A019B06
:101E000002F00F0B0811121101F00F01CBF1100AB3
:101E100003FB0202049801FB0AFAC1F1100700EB70
:101E2000820950F822000BFB07F7CAF58074D9F835
:101E300004200BFB01F1059BE41B4FEA122802F082
:101E4000FF12641A00F0FF1B4FEA102E0AFB02F289
:101E500059F8030008F0FF18994404FB0B220AFB11
:101E600008F80EF0FF1E59F804AC4FEA102900F0F4
:101E7000FF1004FB0E884FEA1A2B09F0FF1901FB33
:101E800000220AF0FF1A01FB09880BF0FF1B07FB79
:101E90000A2207FB0B884FEA122A08F0FF280AF0F3
:101EA000FF1248EA0202110E3DD0029B02F0FF1021
:101EB000DCF80040C2F3072201FB03315FEA146E35
:101EC0004FEA112101FB00F001FB02F20DD0C1F538
:101ED000807704F0FF18C4F307240EFB07773F0A4E
:101EE000394407FB080007FB0422000A120A00F02D
:101EF000FF1091B10139FE294FEA01640CD8154B4E
:101F000002F0FF1233F8111000FB01F001FB02F2A6
:101F1000000A120A00F0FF102043120202F0FF2212
:101F20001043CCF80000119B013D009A0CF1040C09
:101F30001A44109B0092129A134410936B1C7FF466
:101F400021AF07B0BDE8F08FBE4651E700210391F5
:101F50000EE700BF206E0508002A2DE9F0470C9D12
:101F6000D1F80090D1F81880D1F808E00468DDE9D4
:101F7000081CDDE90A7617DD501E0A1301384FEA06
:101F8000233A394405FB02F2634406FB0AFA1214B1
:101F90004FEA2A4A0EFB029212F80A2058F8222031
:101FA00044F8042B421CE8D1BDE8F0872DE9F04F3E
:101FB000006885B0D1F81880002A00900868896808
:101FC00001900291DDF838A07FDD02F1FF394A1C53
:101FD00003920F991D134FEA2A32029C0B44119968
:101FE000039F09F1FF3901FB05F51099B9F1FF3F96
:101FF0008A4412994FEA253501FB02F2A5F1080542
:102000004FEA22324FEA251105F00F05A2F108022E
:10201000C5F110064FEA221002F00F0204FB001077
:10202000019CC2F1100E02FB06F604EB000102FB5C
:1020300005F205FB0EFE205C4D7801EB070BCEF59B
:10204000807C58F8200058F82550C95DACEB060498
:102050004FEA152C05F0FF15A4EB020458F82110E7
:102060000EFB05F51BF801BC4FEA10270CF0FF1C16
:1020700000F0FF1058F82BB00EFB0CFC07F0FF1718
:1020800004FB00504FEA112E01F0FF114FEA1B250F
:1020900004FB07CC0EF0FF1E02FB01000BF0FF1B40
:1020A00002FB0ECC05F0FF1506FB0B00009A06FBA9
:1020B00005CC4FEA10200CF0FF2C00F0FF104CEA8A
:1020C000000042F8040B009283D105B0BDE8F08F08
:1020D0002DE9F04F002A85B000680F68D1F818E0AC
:1020E000D1F80880DDE90E6A65DD551E0197F146DD
:1020F00007E00260109A013D5344043016446A1C04
:1021000059D0129C3213191304FB02F2119C1214C1
:1021100004FB01F1019C091408FB0242525C59F8CE
:102120002220110EFF29E4D004685FEA146B01D16C
:102130000029DED102F0FF1C04F0FF1701F1010EAF
:10214000C4F30724CDF808C0C2F307220397CEF5E5
:10215000807C0029CED00BFB0CCC039F4FEA1C2CBB
:102160000CFB07FB6144029F0CFB04FCFE290EFBE9
:1021700002CC0EFB07BB4FEA1C2C4FEA1B2B0CF0CA
:10218000FF120BF0FF1B0CD80C4C34F811C00BFBEA
:102190000CFB0CFB02FC4FEA1B2B4FEA1C2C0BF038
:1021A000FF1B4FEA0C2C4BEA01610CF0FF2C4CEAB0
:1021B000010101609EE705B0BDE8F08F206E0508C3
:1021C0002DE9F04F002A85B0D0F80090D1F81880A2
:1021D000086889680190029140F3BD8002F1FF3ADE
:1021E0004A1C03920FE0C9F800600F9A0AF1FF3A07
:1021F000109909F1040913440E9ABAF1FF3F0A44F9
:102200000E9200F0A88011991D130E9A01FB05F59E
:1022100012991213029C2D13039F01FB02F2083D39
:102220001213291105F00F05083AC5F11006101117
:1022300002F00F0204FB0010019CC2F1100E02FB21
:1022400006F6211802FB05F205FB0EFE205C4D7818
:1022500001EB070BCEF5807C58F8200058F825508C
:10226000ACEB0604C95D4FEA152C05F0FF15A41A66
:1022700058F821100EFB05F5070A0CF0FF1C1BF89F
:1022800001BC00F0FF1007F0FF170EFB0CFC58F824
:102290002BB004FB00504FEA112E01F0FF114FEA62
:1022A0001B2504FB07CC0EF0FF1E02FB01000BF008
:1022B000FF1B02FB0ECC05F0FF1506FB0B0006FB17
:1022C00005CC000A0CF0FF2C00F0FF104CEA0006D1
:1022D000310EFF2987D0D9F800005FEA106C01D1D8
:1022E000002980D14F1C00F0FF1E06F0FF14C0F340
:1022F0000720C7F58075C6F3072600293FF475AFA0
:102300000CFB05552D0A05FB0EFE294405FB00F5C7
:1023100007FB04EEFE2907FB06554FEA1E2E4FEA87
:1023200015250EF0FF1E05F0FF120BD80B4830F8F4
:1023300011500EFB05FE05FB02F54FEA1E2E2D0A7D
:102340000EF0FF1E2D024EEA016105F0FF250D4340
:10235000C9F8005049E705B0BDE8F08F206E0508C8
:102360002DE9F04F85B0D0F800E00F68139ED1F84A
:102370001890346B356D2415D1F808A0DDF838C0FD
:102380000134002D5ED1716DB1FA81FB4FEA5B1B08
:10239000002A02F1FF3552DD5246CDF804B0CA469C
:1023A000B946934612984FEA2C311A13019F00FB4D
:1023B00001F11198091400FB02F201FB0B901214B9
:1023C000805C5AF820004FBBD6F85480B76B18F1E8
:1023D0000004039718BF0124376D0294346B67B172
:1023E00059B1776B07FB0144B8F1000F13D0F76BBD
:1023F000B846039F08FB0171039162B1029951B184
:102400002115039F04F07F64C1EB2758B16C01FBD9
:1024100008F802FB0844C4F307540134020E0F9974
:1024200020F07F40013D04FB02F20B441099120A98
:102430008C4440EA02606A1C4EF8040BB2D105B02D
:10244000BDE8F08F4FF0000BA2E700BF2DE9F04F81
:1024500087B000689846D1F81890DDF854E00090F5
:10246000DEF830400868241589680490DEF85030A2
:10247000601C02910190002B40F0C180DEF85430C6
:10248000B3FA83F35B090393002A02F1FF3A40F3A6
:10249000B380029B01330593109B4FEA28310398C8
:1024A0001C13139B03FB01F1149B03FB04F40B139C
:1024B000221340BBDEF854000914DEF85060071CFC
:1024C000DEF83050DEF838C018BF012756B12414AA
:1024D00008D0DEF8346006FB045580B1DEF83C001D
:1024E00000FB04CC59B157B12C15DEF8480005F0BB
:1024F0007F65C4EB2C5600FB06F601FB0655C5F3C1
:102500000755691C0191109C083B129D083A1199CE
:102510000AF1FF3A2C44101188441911109402F06A
:102520000F02029C03F00F03C2F1100CBAF1FF3F3F
:1025300004FB0011049803FB0CFCC3F1100500EB35
:10254000010602FB03F302FB05F5415C7478CCF550
:102550008070059A59F82440A0EB050059F8211025
:1025600006EB020B4FEA1427B25C04F0FF14A0EB59
:10257000030059F822204FEA11260CFB04F41BF843
:1025800001BC07F0FF1701F0FF1106F0FF160CFB6E
:1025900007F700FB014159F82B404FEA122B02F0DC
:1025A000FF124FEA142C00FB067703FB02110BF01D
:1025B000FF1B04F0FF140CF0FF1C03FB0B77019BC7
:1025C00005FB041105FB0C774FEA112107F0FF27EB
:1025D00001F0FF1147EA010C4FEA1C622CF07F4C1E
:1025E00003FB02F2009B4FEA12224CEA026243F81C
:1025F000042B00937FF450AF07B0BDE8F08F0023A9
:10260000039341E72DE9F04F85B0D1F800B0D1F840
:1026100018A0139F89683C6B3D6D241506680391D3
:102620000134DDF838C0002D40F09680796DB1FAA4
:1026300081F149090291002A02F1FF3540F38980B6
:102640000193019B4FEA2C30129A1913029B02FB53
:1026500000F0119A001402FB01F1039A091400FB27
:1026600002B2525C5AF822203BBBD7F854903B6D23
:1026700019F100083C6BD7F838E018BF4FF001089B
:102680004BB140B17B6B03FB0044B9F1000F11D09B
:10269000FB6B03FB00EE69B1B8F1000F0AD04FEA03
:1026A0002458B86C04F07F64C8EB2E5E00FB0EFE6D
:1026B00001FB0E44C4F307540134110E3ED001FB5C
:1026C0000441306802F0FF1EC2F30722090A5FEAE4
:1026D000106901FB0EFE01FB02F20ED0C1F58078FD
:1026E00000F0FF13C0F3072009FB08884FEA182801
:1026F000414408FB03EE08FB00224FEA1E2E120A9B
:102700000EF0FF1EA1B10139FE294FEA01600DD87C
:10271000134B02F0FF1233F811100EFB01FE01FB08
:1027200002F24FEA1E2E120A0EF0FF1E4EEA000EB3
:10273000120202F0FF2242EA0E0232600F9B013DBC
:10274000019A04361A44109B9C446B1C01927FF43E
:1027500078AF05B0BDE8F08F002102916BE700BFB4
:10276000206E05082DE9F04F89B000688E69179F2B
:1027700001903D6B08682D15896806903C6D681CBA
:1027800003910490002C40F0FD80796DB1FA81F145
:1027900049090591002A02F1FF3C40F3EE80039ABB
:1027A000029301320792029B1813129B1D13159B73
:1027B00003FB00F0169B03FB05F5059B01132A1391
:1027C00063BBD7F854A000143B6D1AF100093C6BB1
:1027D000D7F8388018BF4FF001095BB12D1409D02C
:1027E0007B6B03FB0544BAF1000F00F0C980FB6B63
:1027F00003FB0588A64660B1B9F1000F09D0251585
:10280000BC6C0EF07F6EC5EB285804FB08F800FB8B
:1028100008EECEF3075E0EF1010304930839083A7F
:10282000039B02F00F050811121101F00F01C5F111
:10283000100A03FB0202069801FB0AFAC1F1100E0E
:1028400000EB0208805C05FB01F1CAF5807498F882
:10285000012005FB0EFE56F8200056F82250A4EB8E
:102860000E04079A4FEA152905F0FF1508EB020B35
:1028700018F80220641A0AFB05F556F822204FEAE0
:1028800010281BF801BC09F0FF1900F0FF1008F038
:10289000FF180AFB09F904FB005056F82B504FEAC9
:1028A000122B02F0FF124FEA152A04FB089901FBD4
:1028B00002000BF0FF1B05F0FF150AF0FF1A01FBE9
:1028C0000B990EFB05000EFB0A99000A09F0FF297F
:1028D00000F0FF1249EA0202110E3CD0049B02F004
:1028E000FF10C2F3072201FB0331019B1C68090A98
:1028F0005FEA146E01FB00F001FB02F20DD0C1F59E
:10290000807504F0FF18C4F307240EFB05552D0A4B
:10291000294405FB080005FB0422000A120A00F006
:10292000FF1091B10139FE294FEA01640CD8174B11
:1029300002F0FF1233F8111000FB01F001FB02F26C
:10294000000A120A00F0FF1020431202019B02F05D
:10295000FF2210431860139B0CF1FF3C029ABCF15C
:10296000FF3F1A44129B0292149A13441293019B44
:1029700003F1040301937FF416AF09B0BDE8F08FB3
:10298000A64646E70021059104E700BF206E050832
:102990002DE9F04F8BB09946D0F800C0199FD1F8BF
:1029A00000A03B6DD1F808B0DDF85080002B40F05E
:1029B000E3807B6DB3FA83F35B0900933968002AE7
:1029C0003B6902F1FF3E386A4FEA11114FEA1333B7
:1029D000C0F3075401F47F01386B03F47F434FEADF
:1029E000001643EA010306F07F4043EA040340EA8D
:1029F000030040F3AC800546CDE902AB18994FEADD
:102A000028334FEA293201FB03F317991B1401FB0A
:102A100002F2DDE90201121403FB01018C5C009952
:102A2000002940F08580796D386809910031BE68D1
:102A300018BF01210190059604910146BE6AB8694C
:102A4000079606903E6DB86BD7F810B03D6AD7F880
:102A500030A0089036B32BB37E6806FB03107E6966
:102A6000099906FB03BB7E6A019006FB03557E6B4A
:102A700006FB03AA00297DD0F868FE690146059887
:102A800001FB03000590069806FB0301F86AFE6B44
:102A900006910146079801FB0301089806FB030312
:102AA0000791089301998AB3049B7BB3B86C4FEAF2
:102AB0002B530E150BF07F6B00FB02F2059804936D
:102AC00001F07F63C6EB20560499281505F07F6559
:102AD0000193069B069505460798C1EB2353019980
:102AE000C5EB2050049302FB06114FEA2A530590D0
:102AF0000AF07F6A0498089E02FB00BBC3EB2653D2
:102B0000DDE9050502FB03AA02FB00550909C5F32F
:102B100007554FEA1B3B01F47F014FEA0A1A0BF4F9
:102B20007F4B0AF07F4A41EA0B010D4345EA0A0553
:102B300084B9CCF80040159B0EF1FF3E0CF1040C5B
:102B40009944BEF1FF3F169B98447FF457AF0BB0FA
:102B5000BDE8F08FFF2C0AD02B0E25F07F4204FB3E
:102B60000334240A42EA0462CCF80020E3E7CCF8FC
:102B70000050E0E70199C9E7002300931EE700BF7A
:102B80002DE9F04F8DB09946D0F800A0DDF86CE04B
:102B90000868DEF85030896804900291002B40F0FC
:102BA0001F81DEF85430B3FA83F35B090393DEF838
:102BB0000010002ADEF8103002F1FF3B4FEA11113D
:102BC000DEF820004FEA133301F47F04DEF8301002
:102BD00003F47F43C0F307504FEA011143EA0403B3
:102BE00001F07F4140EA030040EA010540F3F5802F
:102BF000029B013301930FE0CAF80060179B0BF1B1
:102C0000FF3B189A0AF1040A9944169BBBF1FF3F57
:102C10001344169300F0E180169B4FEA29361C13EB
:102C2000199B03FB06F61A9B03FB04F4039B4FEA74
:102C300026384FEA243C002B40F08A80DEF85430DE
:102C40003214DEF80870DEF8380005921A1C079777
:102C5000DEF8187018BF012209903E460A97DEF888
:102C60005000DEF828700B930692DEF80030DEF894
:102C70001010DEF82050DEF83020089770B32414CE
:102C80002CD0DEF8040000FB0433DEF8140000FB57
:102C90000411DEF8240000FB0455DEF8340000FBCC
:102CA00004220B98002845D0DEF81C00079F0A90EC
:102CB000DEF80C0000FB047007900A9800FB046724
:102CC000DEF82C00064608980A9706FB0400DEF89A
:102CD0003C700890099807FB04000990059E4EB3CC
:102CE000069838B3DEF848001F150C1503F07F6313
:102CF00000FB06F6079801F07F61C7EB20500A9FA2
:102D0000C4EB27540590171502F07F62281505F0D3
:102D10007F650692089A06FB0411C0EB2250059AC3
:102D200006FB0233099A06FB0055C7EB2257069AA9
:102D300006FB07221B09C5F30755090B03F47F03A4
:102D4000120101F47F4102F07F420B431D43154302
:102D5000ACF1080CA8F10808029A0CF00F004FEA39
:102D600028134FEA2C1C08F00F08C0F11001049F33
:102D700002FB0C3CC8F1100208FB01F1019E07EBBD
:102D80000C0400FB02F2C1F5807300FB08F86078C8
:102D9000A6199B1A17F80C7001FB00F10198A3EB20
:102DA000080316F8016C245C07FB031108FB0411EF
:102DB00002FB0616360A3FF41FAFFF2E0AD02A0E7A
:102DC00025F07F4306FB0226360A43EA0663CAF86B
:102DD000003013E7CAF8005010E70DB0BDE8F08FDF
:102DE00000230393E3E600BF2DE9F04F89B09C4632
:102DF000D0F800B0DDF85CE00868DEF850300190F3
:102E0000D1F80880DDF84890002B40F03081DEF8E2
:102E10005430B3FA83F77F09DEF80010002ADEF899
:102E2000103002F1FF3A4FEA1111DEF820004FEAAC
:102E3000133301F47F04DEF8301003F47F43C0F352
:102E400007504FEA011143EA040301F07F4140EAD1
:102E5000030040EA010040F30581CDF800B0D346FD
:102E6000E246CDE902780FE0009B1860139B0BF15E
:102E7000FF3B9A44149BBBF1FF3F9944009B03F135
:102E80000403009300F0EE80169B4FEA29324FEACC
:102E90002A31019C03FB02F2159B121403FB01F182
:102EA000039B091402FB03435E5C029B002B40F072
:102EB0008E80DEF80870DEF854C00497DEF81870D3
:102EC0001CF10008DEF80030059718BF4FF001082C
:102ED000DEF82870DEF810000697DEF83870DEF8AD
:102EE00020500797DEF85070DEF830409FB392B361
:102EF000DEF8047007FB0233DEF8147007FB0200F3
:102F0000DEF8247007FB0255DEF8347007FB02443C
:102F1000BCF1000F00F0A980DEF80C70BC46049FE5
:102F20000CFB027CDEF81C70CDF810C0BC46059F7F
:102F30000CFB027CDEF82C70CDF814C0BC46069F5A
:102F40000CFB027CDEF83C70CDF818C0BC46079F35
:102F50000CFB02720792224659B3B8F1000F28D039
:102F60004FEA2058DEF84840059F4FEA235C04FBF7
:102F700001F1049CC8EB275703F07F634FEA225806
:102F800002F07F62CCEB245C00F07F602C15049291
:102F9000069A05F07F6501FB0C33C4EB2254079AB7
:102FA00001FB0700C8EB2258049A01FB045501FB02
:102FB00008221B09C5F30755000B03F47F03120118
:102FC00000F47F4002F07F42184328431043FF2E55
:102FD0004FEA106402D1A6423FF446AF002E3FF400
:102FE00045AF002C3FF442AF0134009900F0FF12CE
:102FF000C0F30723096806FB04460D0E4FEA1626A8
:1030000006FB02F206FB03F30DD0C6F5807401F057
:10301000FF1CC1F3072105FB0444240A264404FBDA
:103020000C2204FB0133120A1B0A02F0FF1296B1B4
:10303000013EFE2E4FEA06610CD80E4C03F0FF1342
:1030400034F8164002FB04F204FB03F3120A1B0AD5
:1030500002F0FF120A431B0203F0FF231A43009BF6
:103060001A6003E709B0BDE8F08F2246A1E7002708
:10307000D2E600BF206E05082DE9F04F8DB09A46CC
:10308000D0F80090DDF86CE00868DEF85030896810
:1030900004900291002B40F05981DEF85430B3FACD
:1030A00083F35B090393DEF80010002ADEF810308A
:1030B00002F1FF3B4FEA1111DEF820004FEA133313
:1030C00001F47F04DEF8301003F47F43C0F30750AF
:1030D0004FEA011143EA040301F07F4140EA030093
:1030E00040EA010540F32F81029B013305930FE075
:1030F000C9F80050179B0BF1FF3B189A09F104091E
:103100009A44169BBBF1FF3F1344169300F01B81BA
:10311000169B4FEA2A30039A4FEA2338199B03FB88
:1031200000F01A9B03FB08F801134FEA28330193C0
:10313000002A40F08D80DEF854300214DEF808706A
:1031400013F1000C0B930797DEF8183018BF4FF0FF
:10315000010CDEF8287018460A930897DEF838301C
:10316000DEF850700692DEF81050DEF80020DEF82F
:103170002060DEF8304009936FB35FEA28482AD018
:10318000DEF804700B9B07FB0822DEF8147007FBC7
:103190000855DEF8247007FB0866DEF8347007FB7C
:1031A0000844002B46D0079BDEF80C7007FB08375D
:1031B000DEF82C300797DEF81C7007FB080718466E
:1031C000089B0A9700FB0833DEF83C700893099BC4
:1031D00007FB08330993069B63B3BCF1000F29D0AA
:1031E000DEF848704FEA22584FEA255C02F07F6211
:1031F00007FB03F30A9F05F07F651846079BCCEB9E
:10320000275CC8EB2358271504F07F64331506F0BC
:103210007F6606941C46089B00FB0822C4EB2353E0
:10322000099C00FB0C55C7EB245700FB0366069B6B
:1032300000FB07341209C6F307562D0B02F47F0278
:10324000240105F47F4504F07F44154335432543AD
:10325000019B08390298083B0A1101F00F01049CF8
:1032600003F00F0C1B11C1F11006CCF1100700FB8D
:1032700003230CFB06F601FB07F7E018E45C0CFBEC
:1032800001F1C7F5807290F801C00194921B059C72
:1032900007FB0CF710F80480521A2044019C04FB31
:1032A000027210F8010C01FB082206FB0022160A2C
:1032B000FF2E03D12B0E9E423FF41AAF002E3FF497
:1032C00019AF2C0E002C3FF415AF0134D9F80000D3
:1032D00005F0FF12C5F3072306FB0444060E4FEA70
:1032E000142404FB02F204FB03F30DD0C4F5807137
:1032F00000F0FF17C0F3072006FB0111090A0C4478
:1033000001FB072201FB0033120A1B0A02F0FF1225
:1033100094B1013CFE2C4FEA04610CD80D4803F037
:10332000FF1330F8140002FB00F200FB03F3120A53
:103330001B0A02F0FF120A431B0203F0FF231A4389
:10334000C9F80020D6E60DB0BDE8F08F0023039346
:10335000A9E600BF206E0508002A2DE9F0470C9E63
:103360008D68D1F800800468DDE9081EDDE90AC730
:103370002EDD501E6D100A1301384FEA23396144C7
:1033800006FB02F2734407FB09F912144FEA2949BC
:1033900005FB029238F812A04FEADA024FEACA0996
:1033A00002F0FC024FEA1A2A5FFA89F942EA921205
:1033B0000AF0F80A49EA02224AEA5A1A42EA59127B
:1033C00042EA0A4242F07F4244F8042B421CD2D126
:1033D000BDE8F0872DE9F04F006885B0002A019024
:1033E00088680968DDF838A002914FEA600103910E
:1033F00040F3848002F1FF394A1C4FEA420B0F99D7
:103400004FEA233E4FEA2A3203980B44119909F1FF
:10341000FF3901FB0EFE1099B9F1FF3F8A44129962
:103420004FEA2E3E01FB02F2AEF1080E4FEA2232C5
:103430004FEA2E11CEF3420EA2F10802CEF108059A
:103440004FEA221CC2F3420200FB0C1CC2F1080727
:10345000029902FB05F50EFB07F701EB4C0631F86C
:103460001CC0C7F1400102FB0EF274882CF4FC6E04
:10347000A1EB050136F80B0024F4FC6804F4FC64AD
:10348000A1EB02010CF4FC6C07FB08F85E4407FB9F
:1034900004F436F8026C01FB0E8E01FB0C4420F4A0
:1034A000FC6800F4FC6026F4FC6702FB08E806F404
:1034B000FC6602FB00444FF61F0205FB078805FB74
:1034C000064402EA98184FEA54244FEAC80104F06F
:1034D000FC044FEA182801F0F80144EA941448EA81
:1034E000581841EA042242EA5112019942EA08427C
:1034F00042F07F4241F8042B019180D105B0BDE834
:10350000F08F00BF2DE9F04F83B08F68D0F800E056
:10351000119E4FEA6709DDF830C0346B356D241514
:103520000F680134002D6AD1716DB1FA81FB4FEA49
:103530005B1B002A02F1FF355EDD4A46CDF800B084
:10354000B94693460F9A19134FEA2C30009F02FB9D
:1035500001F1109A02FB00F00914001400FB0B1299
:1035600039F8122057BBB76BD6F854A001971AF15F
:103570000008376D346B18BF4FF0010867B158B1C0
:10358000776B07FB0044BAF1000F14D0F76BBA4613
:10359000019F0AFB0070019069B1B8F1000F0AD0D9
:1035A0002015019F04F07F64C0EB2758B06C00FB2E
:1035B00008F801FB0844C4F3075401348AB1100A27
:1035C000D10000F0F800D208C9B240EA501002F071
:1035D000FC0241EA511142EA921241EA004141EAF9
:1035E000022242EA04620D99013D0B444EF8042B7D
:1035F0000E996A1C8C44A5D103B0BDE8F08F4FF042
:10360000000B96E72DE9F04F89B08D680068DDF872
:103610005C8002906810D8F8304004902615096844
:10362000D8F85040701C0691DDF848A00390002C9B
:1036300040F0C080D8F85410B1FA81F149090591E1
:10364000002A02F1FF3940F3B280049A019301325B
:1036500052000792019B4FEA2A351913159B03FB71
:1036600001F1169B03FB05F5059B0C132A135BBBAD
:10367000D8F854E00914D8F850301EF10000D8F8FA
:103680003060D8F8387018BF012063B12D140AD00B
:10369000D8F8343003FB0566BEF1000F10D0D8F81F
:1036A0003C3003FB057759B150B13515D8F84800C7
:1036B00006F07F66C5EB275700FB07F701FB07669F
:1036C000C6F30756731C0393083C083A049BC2F3E5
:1036D000420021111211C4F34204C0F1080C03FB93
:1036E0000212069904FB0CFCC4F1080601EB420728
:1036F00031F812E000FB06F6CCF14005798800FBBA
:1037000004F4079BAD1B01F4FC600EF4FC6BFA5A49
:103710002D1B1F4421F4FC610CFB00F02EF4FC6E09
:1037200037F8027C0CFB01F105FB0B0002F4FC6B8B
:1037300005FB0E1122F4FC6204FB0B0007F4FC6B8A
:1037400004FB021127F4FC6706FB0B004FF61F0376
:1037500006FB0711800903EA911100F4FC6051EAAD
:10376000000711D03A0AFC0002F0F802FF08E4B2A8
:1037700042EA521207F0FC0744EA541447EA97174A
:1037800044EA024444EA0727039B09F1FF39019AFE
:1037900047EA0367139BB9F1FF3F1A44149B9A440D
:1037A000029B019243F8047B02937FF453AF09B06C
:1037B000BDE8F08F0021059142E700BF2DE9F04FF1
:1037C00083B08D680668119F4FEA650BD1F800A0A1
:1037D0003C6B4FEA245C3C6D0CF10100DDF830C01D
:1037E000002C40F0A480796DB1FA81F14909019172
:1037F000002A02F1FF3540F395800093009B4FEAC9
:103800002C340F9A1913019B02FB01F1109A02FB51
:1038100004F40914241404FB0B123AF812203BBBE5
:10382000D7F854903B6D19F10008386BD7F838E0A1
:1038300018BF4FF001084BB144B17B6B03FB040090
:10384000B9F1000F11D0FB6B03FB04EE69B1B8F1C5
:10385000000F0AD04FEA2058BC6C00F07F60C8EB24
:103860002E5E04FB0EFE01FB0E00C0F3075001307C
:10387000140AD6F800E0D10004F0F804D208C9B266
:1038800044EA541402F0FC0241EA511142EA921255
:1038900041EA04415FEA1E6841EA022202F0FF1198
:1038A000C2F3072201FB00F102FB00F23DD0C0F59C
:1038B00080740EF0FF19CEF3072E08FB0444240A8F
:1038C00004FB091100EB040804FB0E22090A120A8A
:1038D00001F0FF11B8F1000F14D008F1FF38B8F172
:1038E000FE0F4FEA08640CD8124B02F0FF1233F8B7
:1038F00018E001FB0EF10EFB02F2090A120A01F0B8
:10390000FF1121430D9B1202009C013D02F0FF229A
:103910001C440E9B11439C446B1C009446F8041BF2
:103920007FF46CAF03B0BDE8F08F8046CEE7002196
:1039300001915DE7206E05082DE9F04F87B08D6895
:1039400000689A46DDF854E000906810DEF83040D8
:1039500009682415DEF85030039001340591002BDE
:1039600040F0F380DEF85430B3FA83F35B0904933C
:10397000002A02F1FF3B40F3E380039B01335B002D
:103980000193109B4FEA2A3204981D13139B03FBEB
:1039900002F2149B03FB05F51313291338BBDEF861
:1039A00054001214DEF85060071CDEF83040DEF8D8
:1039B00038C018BF012756B12D1408D0DEF8346086
:1039C00006FB054480B1DEF83C0000FB05CC5AB193
:1039D00057B12515DEF8480004F07F64C5EB2C567E
:1039E00000FB06F602FB0644C4F307540134A1F1C0
:1039F0000802083B0099C3F3420C4FEA22190F68F2
:103A00001911039BC2F34208059ACCF1080603FB87
:103A10000919C8F1080008FB06F602EB49030CFB84
:103A200000F032F8191008FB0CF2B3F802C0C0F134
:103A3000400521F4FC6901F4FC612CF4FC680CF4F1
:103A4000FC6CAD1B00FB08F800FB0CF0AD1A0290FB
:103A5000019805FB098933F800C0034402982CF44F
:103A6000FC6833F8023C05FB01010CF4FC6C02FB22
:103A7000089823F4FC6902FB0C1C4FF61F0206FB9E
:103A8000098803F4FC6302EA981806FB03CC4FEAAA
:103A9000C8004FEA5C2C00F0F8004FEA18280CF040
:103AA000FC0C40EA501048EA58184CEA9C1C40EACA
:103AB0000848380E48EA0C2C0CF0FF12CCF3072310
:103AC00002FB04F203FB04F33DD0C4F5807107F060
:103AD000FF15C7F3072700FB0111090A01FB0522A7
:103AE000601801FB0733120A1B0A02F0FF1290B1A3
:103AF0000138FE284FEA00610CD8154D03F0FF1382
:103B000035F8100002FB00F200FB03F3120A1B0A57
:103B100002F0FF120A4311991B020BF1FF3B1298AE
:103B200003F0FF238A441099BBF1FF3F42EA0302EE
:103B3000009B014443F8042B109100937FF421AFC4
:103B400007B0BDE8F08F2046CDE7002304930FE7D0
:103B5000206E0508F0B41D6949001C6887682E0BAB
:103B60002409056807FB021206F47F46196A04F46B
:103B70007F041B6B3443C1F307511B010C4303F05B
:103B80007F432343980E18D0190AC3F3C4045B097A
:103B9000013001F4784103F4FC63214300FB03F39B
:103BA00000FB01F09B09800903F4FC6320F4FC6036
:103BB00003439BB2AB52F0BC70470346AB52F0BC20
:103BC000704700BFF0B41D691C682E0B1F6A2409E2
:103BD0001D6B06F47F43C7F3075704F47F042D01E0
:103BE000234305F07F453B432B439D0E2AD01C0AFF
:103BF00087684900066804F47844C3F3C4003F2D85
:103C00004FEA531307FB021140EA040003F4FC637C
:103C100016D00135725A4FF61F07C5F1400C05FB4F
:103C200003F302F4FC6405FB00F522F4FC620CFBD8
:103C300004330CFB02559B0907EA951003F4FC635F
:103C400003437352F0BC704770B403681469106882
:103C5000250B166A0009146B05F47F42C6F307565C
:103C600000F47F002401024304F07F40324302430A
:103C7000900E2DD0140AC2F3C4055209013004F489
:103C8000784402F4FC622C4300FB02F200FB04F0D7
:103C90009209800902F4FC6220F4FC60024390B2B5
:103CA00040EA00429D0704D0002906DD013923F8CF
:103CB000020B002901DDCC070CD44910002905DDD9
:103CC00003EB810143F8042B9942FBD170BC704790
:103CD0000246E7E7013923F81100EEE72DE9F0414C
:103CE0001368002914694FEA1313166A4FEA143552
:103CF000146B03F47F03C6F3075605F47F424FEAC3
:103D00000414006842EA030204F07F4342EA060218
:103D100042EA03022EDD150AC2F3C403940E4FF6E5
:103D20001F0E05F478455209661C00EB41011D4346
:103D300002F4FC62C6F1400706FB05FC06FB02F636
:103D4000ACB13F2C90462B460ED0038803F4FC68A0
:103D500023F4FC6307FB086807FB03C34FEA9818CA
:103D60000EEA931308F4FC6843EA08030380023068
:103D70008142E5D1BDE8F0812DE9F04F536883B071
:103D800000290568019316681769D2F820C0146BE2
:103D9000D2F81490D2F824A0536B37DD4FEA031BFE
:103DA000240105EB4108310904F07F433A0BCCF3C1
:103DB000075E01F47F0002F47F4240EA020141EA1B
:103DC000030242EA0E031A0AC3F3C40E580902F4AE
:103DD00078429B0E00F4FC6003F1010142EA0E02FE
:103DE0000BD001FB02F301FB00F19B09890923F4CD
:103DF000FC6301F4FC610B439BB2019A4F4425F82C
:103E0000023B45451644D4445C44CCD103B0BDE8E4
:103E1000F08F00BF00290068536B2DE9F04F156843
:103E200083B01669176A146BD2F804E0D2F81480D4
:103E3000D2F824904CDD2401F2464FEA031C00EB3B
:103E4000410B01944FEA151E0199330B55440EF4B2
:103E50007F0E01F07F4203F47F43614446444EEA03
:103E6000030EC7F3075301914F444EEA020E4EEA88
:103E7000030E4FEA1E23CEF3C4014FEA5E1203F491
:103E800078435FEA9E6E02F4FC6243EA01031CD0B1
:103E90000EF10101BEF13F0F01FB02F4C1F1400E32
:103EA00001FB03F10FD0038803F4FC6223F4FC63ED
:103EB0000EFB02420EFB03134FF61F01920901EAAB
:103EC000931302F4FC621343038002305845B9D1C6
:103ED00003B0BDE8F08F00BF002AF0B404680D689D
:103EE00021DD04EB420255F8043B190AC3F3C40771
:103EF000580901F478419B0E00F4FC6641EA070181
:103F000003F101000BD000FB01F300FB06F09B095D
:103F1000800923F4FC6300F4FC6003439BB224F8A3
:103F2000023BA242DFD1F0BC704700BF002A2DE95E
:103F3000F04104680D682EDD04EB4202174E4FF687
:103F40001F0755F8041B0B0AC1F3C40C480903F4FE
:103F50007843890E00F4FC6043EA0C0318D001F1A9
:103F6000010C3F29CCF1400E0CFB03F80CFB00FCCC
:103F70000CD0218821F4FC6301EA06000EFB0383C8
:103F80000EFB00C007EA931306EA90100343238058
:103F900002349442D5D1BDE8F08100BFE007FC00B7
:103FA000002A0068F0B41C6B0D6824DDA41500EB3A
:103FB0004202013455F8043BC3F3C407190A5E09F1
:103FC0001B0E01F4784106F4FC6603FB04433943FD
:103FD0001B0A01FB03F11F4606FB03F307D0890907
:103FE0009B0921F4FC6103F4FC6319438FB220F8B0
:103FF000027B9042DED1F0BC704700BF002A00680F
:104000002DE9F0431C6B0D6832DDA415194E00EB51
:1040100042024FF61F07013455F8043B190AC3F357
:10402000C40E4FEA531C01F478419B0E0CF4FC6C57
:1040300003FB044341EA0E0117D09B09B0F800804E
:10404000C3F1400E28F4FC6908EA06080EFB09F9E2
:104050000EFB08FE03FB019103FB0CEC07EA911336
:1040600006EA9C1C43EA0C03038002308242D3D14F
:10407000BDE8F083E007FC00002A00682DE9F0416C
:104080000D68D3E90C4629DD00EB420255F8047BAC
:10409000A3154FEA176C0133390AC7F3C40E0CFBA2
:1040A00003334FEA571801F478411B0A08F4FC6700
:1040B00041EA0E019C4601FB03F107FB03F308D024
:1040C00089099B0921F4FC6103F4FC6319431FFA7D
:1040D00081FC20F802CB90423444D7D1BDE8F08176
:1040E000002A00682DE9F0470C68D3E90C1536DD8D
:1040F00000EB42021B4E4FF61F0754F8043B4FEAF9
:10410000A15829444FEA132CC3F3C4094FEA531EA4
:104110000CF4784C9B0E0EF4FC6E03F101034CEA98
:10412000090C19D008FB0333B0F800809B0928F470
:10413000FC6A08EA0609C3F1400808FB0AFA08FB12
:1041400009F803FB0CAC03FB0E8E07EA9C1306EA8E
:104150009E1E43EA0E03038002308242CDD1BDE8A9
:10416000F08700BFE007FC00002A0068F0B40C688C
:104170008D6923DD00EB420214F8013B55F8233032
:10418000190AC3F3C40C5E0901F478419B0E06F4CE
:10419000FC6741EA0C0103F101060BD006FB01F3B9
:1041A00006FB07F69B09B60923F4FC6306F4FC66DC
:1041B00033439BB220F8023B9042DDD1F0BC704704
:1041C000002A2DE9F04104688D69086830DD024459
:1041D0004FF61F0610F8013B55F823100B0AC1F3E8
:1041E000C40C4F0903F47843890E07F4FC6743EAD3
:1041F0000C0319D001F1010C3F29CCF1400E0CFB4E
:1042000007F80CFB03FC0DD0218801F4FC6721F4B6
:10421000FC610EFB07870EFB01C3BF0906EA93137F
:1042200007F4FC673B432380904204F10204D1D1A0
:10423000BDE8F081002A0068F0B41C6B0D688E693F
:1042400028DDA41500EB4202013415F8013B56F8B5
:104250002330C3F3C40C190A5F091B0E01F4784123
:1042600007F4FC6703FB044341EA0C011B0A01FB52
:1042700003F19C4607FB03F308D089099B0921F44D
:10428000FC6103F4FC6319431FFA81FC20F802CBA4
:104290009042DAD1F0BC7047002A2DE9F04704685B
:1042A0001D6B08688E6934DDAD1502441A4F4FF658
:1042B0001F0C013510F8013B56F82330190AC3F3DF
:1042C000C4084FEA531E01F478419B0E0EF4FC6EB5
:1042D00003FB055341EA080117D09B09B4F800908D
:1042E000C3F1400829F4FC6A09EA070908FB0AFA45
:1042F00008FB09F803FB01A103FB0E8E0CEA9113E6
:1043000007EA9E1E43EA0E032380904204F1020452
:10431000D0D1BDE8F08700BFE007FC00002A0068AC
:104320002DE9F0410D688E69D3E90C472CDD00EBD7
:10433000420215F8013BA11556F823C001314FEA9E
:104340001C23CCF3C4084FEA5C1E4FEA1C6C03F438
:1043500078430EF4FC6E0CFB011143EA0803090AD2
:1043600003FB01F38C460EFB01F108D09B09890980
:1043700023F4FC6301F4FC610B431FFA83FC20F877
:1043800002CB90423C44D4D1BDE8F081002AD1F860
:1043900018C02DE9F04F06680C68D3E90C5E36DDD5
:1043A0002244DFF870804FF61F0914F8013B4FEAF2
:1043B000A55A75445CF82330190AC3F3C407580999
:1043C00001F478419B0E00F4FC6003F1010341EA23
:1043D000070118D00AFB0333B6F800A09B092AF4A2
:1043E000FC670AEA080BC3F1400A0AFB07F70AFB5D
:1043F0000BFA03FB017103FB00A309EA911108EA20
:1044000093130B433380944206F10206CDD1BDE8ED
:10441000F08F00BFE007FC002DE9F0471D69002A7E
:10442000046808684FEA153519681F6A05F47F4665
:104430004FEA11111B6BC7F3075701F47F014FEAD5
:10444000031346EA010603F07F4346EA070646EAFD
:1044500003062DDD330AC6F3C4074FEA561802449B
:1044600003F47843B60E08F4FC684FF61F0A1F43A6
:1044700006F1010EDFF8509004E09042238004F131
:10448000020415D010F8013B9B08F6D003FB0EE1A7
:104490003E2BC4463D464FEA91110BD9B34209D198
:1044A00045EA0C05904204F1020424F8025CE9D1CB
:1044B000BDE8F08701FB07F501FB08F10AEA951555
:1044C00009EA911CECE700BFE007FC002DE9F04F82
:1044D0000668002A18690C6819684FEA10301F6ACC
:1044E0004FEA11111B6B00F47F45C7F3075701F426
:1044F0007F014FEA031345EA010503F07F4345EAD4
:10450000070545EA030544DD2B0AC5F3C4075FEA46
:104510009569224403F478434FEA551514BF4FF0D0
:10452000010E4FF0000E09F1010C1F4305F4FC656C
:104530004FF61F0ADFF8608006E040EA0B0030808B
:10454000944206F1020624D014F8013B9908F7D0F2
:10455000BEF1000FF4D001FB0CC33E29AB46384638
:104560004FEA931301D94945E7D03188C3F1400B95
:1045700021F4FC6001EA08010BFB00F00BFB01FBDE
:1045800003FB070003FB05B30AEA901008EA931B3C
:10459000D3E7BDE8F08F00BFE007FC002DE9F04F46
:1045A0000D6885B05968002A1E68019159691F6914
:1045B0000291596AD3F820C01C6BD0F800E0039137
:1045C0005B6B52DD4FEA031A05EB020924012DE073
:1045D0001043890840EA0B0040EA080301F101009A
:1045E0004FEA1322C3F3C40B4FEA531802F4784284
:1045F0004FEA936308F4FC6826D003FB00003E29D1
:1046000042EA0B024FEA901023D9994221D142EAA3
:104610000808AEF80080019BA9450EF1020E544433
:104620001E44029B1F44039B9C441ED0320915F874
:10463000011B380B04F07F4BCCF3075802F47F02C8
:1046400000F47F400029C3D14FF00003AEF80030E2
:10465000E1E74FF61F0300FB02F200FB08F803EA54
:104660009212034B03EA9818D1E705B0BDE8F08F2A
:10467000E007FC002DE9F04F076885B00868002AC4
:1046800059681C68019159691D690291596A1E6A2D
:10469000D3F830C003915B6B64DD4FEA031A00EB83
:1046A00002094FEA0C1106E043EA0C033B80814506
:1046B00007F1020756D0019A23094FEA153C10F87A
:1046C00001EB1444029A03F47F030CF47F4C15446D
:1046D000039A01F07F4BC6F3075843EA0C031644D4
:1046E0005144BEF1000FE2D043EA0B025FEA9E0E96
:1046F00042EA08024FEA1223C2F3C4084FEA521CEE
:1047000003F478434FEA92620CF4FC6C43EA08032A
:104710000EF10108CBD0002AC9D0BEF13E0F02FB3A
:10472000088801D99645BFD0B7F800B04FEA981273
:104730002BF4FC6E2BF07F4BC2F140082BF47E3B38
:1047400008FB0EFE2BF01F0B02FB03E308FB0BF82C
:1047500002FB0C884FF61F0202EA9313034A02EA97
:10476000981CA1E705B0BDE8F08F00BFE007FC0092
:10477000002A00680B6808DD811E03EB420233F853
:10478000020B934221F8020FF9D17047002AF0B4CE
:104790001E6B04680D681ADDB6154FF61F0704EB93
:1047A0004202013635F8023B03F4FC6123F4FC605D
:1047B0004BB101FB06F300FB06F09B0907EA9010E2
:1047C00003F4FC63034324F8023B9442EAD1F0BCB7
:1047D000704700BF002A0068F0B51C6B0D6825DD2E
:1047E000A4154FF61F0700EB42020134C4F1400646
:1047F000B0F800C035F8023B0CF4FC6E2CF4FC6CF5
:1048000003F4FC6123F4FC6306FB0EFE06FB0CFCC8
:1048100004FB01E104FB03C3890907EA931301F4D4
:10482000FC610B4320F8023B9042E1D1F0BD00BF98
:10483000002AF0B505680F68D3E90C6C1BDD05EBA9
:1048400042024FF61F0EB01537F8023B66440130A6
:1048500003F4FC6123F4FC644BB101FB00F304FBA3
:1048600000F09B090EEA901003F4FC63034325F863
:10487000023B9542E7D1F0BD002A00682DE9F043E4
:104880000D68D3E90C4628DD00EB42024FF61F0706
:104890004FEAA45CB0F800E035F8023B34440CF178
:1048A000010C0EF4FC692EF4FC6803F4FC61CCF1FD
:1048B000400E23F4FC630EFB09F90EFB08FE0CFB13
:1048C00001910CFB03E3890907EA931301F4FC61EE
:1048D0000B4320F8023B9042DAD1BDE8F08300BFE1
:1048E000002A2DE9F04F099F0668D1F800808868FA
:1048F000DDF834B0DDE90B9A30DD4FEAA00E06EBAF
:104900004202391318130BFB01F10AFB00F00914E2
:1049100000140EFB010158F82110080AC1F3C40C61
:104920004D0900F47840890E05F4FC6501F101049D
:1049300040EA0C000BD004FB00F104FB05F48909EC
:10494000A40921F4FC6104F4FC64214389B20A98AF
:104950004F4426F8021B96420344D2D1BDE8F08FA3
:104960002DE9F04FD0F8008085B08868002A0968EA
:10497000DDF8389001914FEAA001029140F3858063
:10498000013108EB42024FEA810A03921198191390
:104990004FEA2932029D00FB01F1129800FB02F25E
:1049A000091312130839083A081101F00F01141104
:1049B00002F00F02C1F1100605FB0404C2F1100C55
:1049C000019802FB06F601FB0CFC00EB840702FBDE
:1049D00001F2CCF5807550F824407968AD1B04F0E5
:1049E000FF1E080A01F0FF11AD1A4FEA142B0CFB51
:1049F00001F157F80A4000F0FF10574405FB0E1173
:104A00000BF0FF1B0CFB00F04FEA142E57F8047C50
:104A100004F0FF1405FB0B000EF0FF1E02FB041157
:104A20004FEA172C07F0FF1702FB0E000CF0FF1CDB
:104A300006FB071106FB0C06090A06F0FF2601F02B
:104A4000FF110E43310AC6F3C404700901F4784122
:104A5000B60E00F4FC6006F1010241EA04010BD03D
:104A600002FB01F102FB00F28909920921F4FC66C4
:104A700002F4FC621643B6B20F9A28F8026B134494
:104A8000109A9144039A904580D105B0BDE8F08F0B
:104A90002DE9F04F002A83B004688F68D1F800C078
:104AA000DDF84090DDE90C5BDDE90EE842DD04EB6A
:104AB0004202E246BF1001922913754418135B4469
:104AC00009FB01F108FB00F00914001407FB0101C8
:104AD0005AF821C04FEA1C21CCF3C4064FEA5C10FF
:104AE00001F478415FEA9C6C00F4FC6041EA060145
:104AF0001CD00CF10106BCF13F0F06FB00F2C6F121
:104B0000400C06FB01F60FD0218801F4FC6021F473
:104B1000FC610CFB00204FF61F020CFB01618009B9
:104B200002EA911100F4FC60014321800234019AF1
:104B30009442C1D103B0BDE8F08F00BF2DE9F04F22
:104B4000D0F8008085B08868002A0968DDF83890C0
:104B500001914FEAA001029140F39580013108EBE9
:104B600042024FEA810A03920F9A191310981344D4
:104B70004FEA293281441198029D00FB01F11298FD
:104B800000FB02F2091312130839083A081101F068
:104B90000F01141102F00F02C1F1100605FB04040D
:104BA000C2F1100C019802FB06F601FB0CFC00EBB5
:104BB000840702FB01F2CCF5807550F82440796837
:104BC000AD1B04F0FF1E080A01F0FF11AD1A4FEAF9
:104BD000142B0CFB01F157F80A4000F0FF1057446A
:104BE00005FB0E110BF0FF1B0CFB00F04FEA142E1F
:104BF00057F8047C04F0FF1405FB0B000EF0FF1EB9
:104C000002FB04114FEA172C07F0FF1702FB0E00FE
:104C10000CF0FF1C06FB071106FB0C00090A00F054
:104C2000FF2001F0FF110843020AC0F3C404410948
:104C300002F47842800E01F4FC6142EA04021CD0C6
:104C4000441C3F2804FB01F5C4F1400004FB02F4BE
:104C500010D0B8F8002002F4FC6122F4FC6200FBE2
:104C6000015100FB02424FF61F00890900EA92122F
:104C700001F4FC610A43A8F8002008F10208039A35
:104C800090457FF471AF05B0BDE8F08F2DE9F04F8E
:104C900085B0D1F80090DDF84CC00E9FDCF83040B4
:104CA000DCF850602546039402968C68AD15029995
:104CB00006684FEAA40B0135002973D1DCF85410C3
:104CC000B1FA81FE4FEA5E1E002A66DD06EB420263
:104CD000CA46CDF800E00192119819133C13009ACE
:104CE00000FB01F1129800FB04F40914241404FBE6
:104CF0000B105AF8200062BBDCF85490029A19F1AC
:104D00000008DCF838E018BF4FF00108002A47D04F
:104D1000002C45D0DCF83450039A05FB0425B9F18A
:104D2000000F13D0DCF83C2002FB04EE71B1B8F1A7
:104D3000000F0BD04FEA2558DCF8484005F07F659E
:104D4000C8EB2E5E04FB0EFE01FB0E55C5F3855528
:104D50000135010E01FB0551090A15D0040AC0F303
:104D6000C40E400904F4784400F4FC6044EA0E04E4
:104D700000FB01F004FB01F48009A40900F4FC60CD
:104D800024F4FC64204381B20F9A26F8021B1344DA
:104D9000109A1744019A96429ED105B0BDE8F08F53
:104DA000039DC3E74FF0000E8EE700BF2DE9F04FE3
:104DB00089B0D0F800A0179C179E246B366D25464D
:104DC00007948C68AD150968A0100696013503910B
:104DD0000190DDF848B0002E40F0D5801799496D5C
:104DE000B1FA81F149090291002A40F3C780019983
:104DF0000AEB42020095013105928A0004929FE07D
:104E00005FEA2C4C00F0B880179C079D646B04FB94
:104E10000C55002F00F0B580179CE76B07FB0CEEDC
:104E20002C4658B156B12F15179DC7EB2E5EAE6CB0
:104E300004F07F6506FB0EFE00FB0E54C4F385559F
:104E4000681C00900839083A049D02F00F0701F031
:104E50000F09081101991211C7F11008C9F11006C4
:104E600001FB0202039909FB08F801EB820E51F8DD
:104E7000220007FB06F6C8F58074DEF8042007FB65
:104E800009F1A41B00F0FF194FEA122C02F0FF12E7
:104E9000641A070A08FB02F25EF805000CF0FF1C1A
:104EA000AE4404FB092207F0FF1708FB0CFC5EF878
:104EB000048C4FEA102E00F0FF104FEA182904FB73
:104EC00007CC01FB00220EF0FF1E08F0FF1809F0CE
:104ED000FF1901FB0ECC009906FB082206FB09CC4A
:104EE000120A0CF0FF2C02F0FF124CEA02094FEA02
:104EF000196202FB0112120A19D04FEA1920C9F3F4
:104F0000C4044FEA591900F4784009F4FC692043BD
:104F100009FB02F900FB02F04FEA9919800909F434
:104F2000FC6920F4FC6040EA09091FFA89F22AF8BA
:104F3000022B139A1344149A9344059A92451DD058
:104F4000159A18134FEA2B3C029C02FB00F0169AAC
:104F500002FB0CFC01134FEA2C32002C7FF472AFE1
:104F6000179C0014676DD4F838E03E1C069C18BFEF
:104F70000126002C7FF444AF079D51E709B0BDE83E
:104F8000F08F2C465AE7002102912DE72DE9F04FD2
:104F900087B08D68DDF854C04FEAA50E109FDCF88D
:104FA0005060DCF8304004960594A4150668086843
:104FB000013404990290002940F08280DCF85410FA
:104FC000B1FA81F149090191002A74DD06EB420230
:104FD0000392139D19133813029A05FB01F1149DD6
:104FE00005FB00F00914001400FB0E1552F82550C3
:104FF000019A62BBDCF854A0049A1AF10009DCF8AB
:10500000388018BF4FF00109002A57D0002855D02A
:10501000DCF83440059A04FB0024BAF1000F13D0E9
:10502000DCF83C2002FB008871B1B9F1000F0BD015
:105030004FEA2459DCF8480004F07F64C9EB285893
:1050400000FB08F801FB0844C4F3855401345FEA0F
:10505000956828D008FB0448B6F800A068094FF608
:105060001F024FEA98180AF4FC6B290A2AF4FC6A1A
:10507000C8F1400900F4FC60C5F3C40501F47841AF
:1050800009FB0BFB0D4309FB0AF908FB00BB08FBFE
:1050900005954FEA9B1B02EA95150BF4FC6B45EA5C
:1050A0000B0BA6F800B0119A02361344129A17445B
:1050B000039A96428DD107B0BDE8F08F059CB3E707
:1050C0000021019180E700BF2DE9F04F89B0D0F8B1
:1050D0000090179C179E246B366D254607948C68AC
:1050E000AD150968A010069604910190681CDDF8C2
:1050F00048A00290002E40F0DD801799496DB1FA6A
:1051000081F149090391002A40F3CF80019909EB0D
:10511000420201F1010B05924FEA8B0BA6E03F140E
:1051200000F0C180179C079D646B04FB0755002E9F
:1051300000F0BE80179CE66B06FB07CC2C4668B1DE
:10514000BEF1000F0AD02E15179D04F07F64AD6CE0
:10515000C6EB2C5C05FB0CF500FB0544C4F3855540
:10516000681C02900839083A01F00F0802F00F0697
:10517000081101991211C6F1100EC8F1100501FBBA
:105180000202049908FB0EFE01EB820C06FB05F5FA
:1051900051F82200CEF58074DCF8042006FB08F1FB
:1051A000641B00F0FF18170A02F0FF12641A060AC7
:1051B0000EFB02F25CF80B0007F0FF17DC4404FB67
:1051C000082206F0FF160EFB07F75CF804EC4FEA26
:1051D000102C00F0FF1004FB06774FEA1E280CF09D
:1051E000FF1C01FB00220EF0FF1E08F0FF1801FB60
:1051F0000C7705FB0E2205FB0877120A07F0FF2744
:1052000002F0FF1247EA0205AC0E26D0029A6809A6
:10521000B9F800E004FB02242A0A0EF4FC6100F451
:10522000FC60A40902F478422EF4FC6EC5F3C405B8
:10523000C4F1400615434FF61F0206FB01F106FBC1
:105240000EF604FB001104FB0565890902EA9515B9
:1052500001F4FC612943A9F80010139A09F102092D
:105260001344149A9244059A91451ED0159A181326
:105270004FEA2A37039C02FB00F0169A02FB07F75D
:1052800001133A13002C7FF46DAF179C0014666D68
:10529000D4F838C016F1000E069C18BF4FF0010E6E
:1052A000002C7FF43CAF079D48E709B0BDE8F08FC4
:1052B0002C4653E70021039125E700BF002A2DE982
:1052C000F04F099F0668D1F800E0D1F81880D1F8B6
:1052D0000890DDE90CAB30DD06EB42023913181300
:1052E0000BFB01F10AFB00F00914001409FB01E1BA
:1052F000095C58F82110080AC1F3C40C4D0900F4E8
:105300007840890E05F4FC6501F1010440EA0C00C7
:105310000BD004FB00F004FB05F48009A40920F481
:10532000FC6104F4FC64214389B20A9826F8021B4C
:10533000964203440B980744D0D1BDE8F08F00BFDC
:105340002DE9F04F002A85B0D0F80090D1F81880F0
:105350000868896800900191DDF838A040F38D80DD
:1053600009EB420202924A1C039211991D134FEA63
:105370002A32019C01FB05F51299039F01FB02F201
:105380002D131213083D083A291105F00F051011CD
:1053900002F00F02C5F1100604FB0010009CC2F1E0
:1053A000100E02FB06F6211802FB05F205FB0EFEAD
:1053B000205C4D7801EB070BCEF5807C58F820007F
:1053C00058F82550ACEB0604C95D4FEA152C05F0E2
:1053D000FF15A41A58F821100EFB05F5070A0CF06A
:1053E000FF1C1BF801BC00F0FF1007F0FF170EFBBD
:1053F0000CFC58F82BB004FB00504FEA112E01F0C2
:10540000FF1104FB07CC4FEA1B250EF0FF1E02FB29
:1054100001000BF0FF1B02FB0ECC05F0FF1506FB95
:105420000B0006FB05CC000A0CF0FF2600F0FF1075
:105430000643310AC6F3C404720901F47841B60E7A
:1054400002F4FC6206F1010041EA04010BD000FB0A
:1054500001F100FB02F28909920921F4FC6102F4D6
:10546000FC660E43B6B20F9A29F8026B1344109AE9
:105470009244029A91457FF478AF05B0BDE8F08F71
:105480002DE9F04F002A83B004680F68D1F818C0E6
:10549000D1F808E0DDE90C5BDDE90F893FDD04EBC5
:1054A0004202BA46009229130E9809FB01F1054405
:1054B00018135B44091408FB00F00EFB01A1001453
:1054C000095C5CF82170390AC7F3C406780901F455
:1054D0007841BF0E00F4FC6041EA06011BD07E1C3F
:1054E0003F2FC6F1400206FB00F706FB01F610D085
:1054F0002188019201F4FC6021F4FC6102FB007040
:1055000002FB01614FF61F06800906EA911100F4C3
:10551000FC60014321800234009A9442C3D103B05D
:10552000BDE8F08F2DE9F04F002A85B0D0F800904B
:10553000D1F818800868896800900191DDF838A0DA
:1055400040F39C8009EB420202924A1C03920F9A9C
:105550001D13109913444FEA2A328A441199019C71
:1055600001FB05F51299039F01FB02F22D131213A3
:10557000083D083A291105F00F05101102F00F023D
:10558000C5F1100604FB0010009CC2F1100E02FBD6
:1055900006F6211802FB05F205FB0EFE205C4D7895
:1055A00001EB070BCEF5807C58F8200058F8255009
:1055B000ACEB0604C95D4FEA152C05F0FF15A41AE3
:1055C00058F821100EFB05F5070A0CF0FF1C1BF81C
:1055D00001BC00F0FF1007F0FF170EFB0CFC58F8A1
:1055E0002BB004FB00504FEA112E01F0FF114FEADF
:1055F0001B2504FB07CC0EF0FF1E02FB01000BF085
:10560000FF1B02FB0ECC05F0FF1506FB0B0006FB93
:1056100005CC000A0CF0FF2500F0FF1005432A0A14
:10562000C5F3C400690902F47842AD0E01F4FC61CF
:1056300042EA00021CD0681C3F2DC0F1400400FB70
:1056400001F500FB02F010D0B9F8002002F4FC6173
:1056500022F4FC6204FB015104FB02024FF61F001E
:10566000890900EA921201F4FC610A43A9F80020BA
:1056700009F10209029A91457FF469AF05B0BDE8CE
:10568000F08F00BF2DE9F04F87B0D1F80090D1F82E
:1056900018A0DDF854C0D1F808B0DCF85050DCF8A0
:1056A000304004950499A515059406680135109FAE
:1056B00000297CD1DCF85410B1FA81FE4FEA5E1E5D
:1056C000002A71DD06EB4202CDF808E0C8460193DE
:1056D000039247E0002C64D0DCF83430059D03FBD6
:1056E00004552B46B9F1000F13D0DCF83C5005FBF4
:1056F00004221D4669B1BEF1000F0AD01C1503F04B
:105700007F65C4EB225EDCF8482002FB0EFE01FB45
:105710000E55C5F385550135010E01FB0551090AEA
:1057200015D0040AC0F3C40E400904F4784400F410
:10573000FC6044EA0E0400FB01F004FB01F4800964
:10574000A40900F4FC6024F4FC64204381B2119AA3
:10575000019B26F8021B1344129A1744039A0193E3
:10576000964221D014983C13019B00FB04F413983B
:105770001913029A241400FB01F104FB0B80091495
:10578000405C5AF82000002AC6D1DCF85490049DF1
:1057900019F1000EDCF8382018BF4FF0010E002D73
:1057A00098D1059C2346A4E707B0BDE8F08F4FF0E1
:1057B000000E85E72DE9F04F89B0D0F800A0D1F8B0
:1057C0001890179C179D246B08682D6DA615896885
:1057D00007940136069503900191002D40F0E18079
:1057E0001799496DB1FA81F149090291002A40F3F4
:1057F000D3800AEB420200960492019A013205928C
:10580000ABE05FEA2C4C00F0C580179C079E646BF0
:1058100004FB0C66002F00F0C280179CE76B07FBAF
:105820000CEE344658B155B13715179D06F07F661A
:10583000AD6CC7EB2E5E05FB0EFE00FB0E64C4F3E1
:105840008556701C0090083A083902F00F0001F0EC
:105850000F0B1411019A0911CBF11008C0F11007B8
:1058600002FB0141039A00FB08F802EB010C555CB6
:105870000BFB07F7C8F580749CF801100BFB00F2D6
:1058800059F82500E41B59F821500599A41A4FEA4C
:10589000152E05F0FF150CEB010B1CF8011008FB91
:1058A00005F54FEA102C59F821100EF0FF1E1BF8D9
:1058B00001BC00F0FF1008FB0EFE0CF0FF1C04FB07
:1058C000005059F82B504FEA112B01F0FF114FEA0D
:1058D000152804FB0CEE02FB01000BF0FF1B05F08A
:1058E000FF1508F0FF1802FB0BEE009A07FB0500FE
:1058F00007FB08EE000A0EF0FF2E00F0FF104EEA44
:1059000000084FEA186101FB0221090A1AD04FEA88
:105910001824C8F3C40C4FEA581804F4784408F467
:10592000FC6844EA0C0408FB01F804FB01F44FEAAC
:105930009818A40908F4FC6824F4FC6444EA0808F4
:105940001FFA88F1139A2AF8021B13441499129A29
:105950000A441292049A92451ED0129A1813029C7D
:105960004FEA223C159A02FB00F0169A02FB0CFC4F
:1059700002134FEA2C31002C7FF465AF179C001402
:10598000676DD4F838E03D1C069C18BF0125002C3B
:105990007FF437AF079E44E709B0BDE8F08F344687
:1059A0004DE70021029121E72DE9F04F87B006680D
:1059B000D1F800E0DDF854C08869DCF83040DCF84C
:1059C00050500594A4158968049501340190029102
:1059D000109F002D40F08480DCF85410B1FA81F162
:1059E00049090091002A76DD06EB42020392149DDC
:1059F00038131913019A05FB00F0139D001405FBE1
:105A000001F1029D091400FB05E56D5C52F825507B
:105A1000009A62BBDCF854A0049A1AF10009DCF881
:105A2000388018BF4FF00109002A57D0002855D000
:105A3000DCF83440059A04FB0024BAF1000F13D0BF
:105A4000DCF83C2002FB008871B1B9F1000F0BD0EB
:105A50004FEA2459DCF8480004F07F64C9EB285869
:105A600000FB08F801FB0844C4F3855401345FEAE5
:105A7000956828D008FB0448B6F800A068094FF6DE
:105A80001F024FEA98180AF4FC6B290A2AF4FC6AF0
:105A9000C8F1400900F4FC60C5F3C40501F4784185
:105AA00009FB0BFB0D4309FB0AF908FB00BB08FBD4
:105AB00005954FEA9B1B02EA95150BF4FC6B45EA32
:105AC0000B0BA6F800B0119A02361344129A174431
:105AD000039A96428BD107B0BDE8F08F059CB3E7DF
